{
  "contractName": "Delegated",
  "abi": [
    {
      "inputs": [],
      "stateMutability": "nonpayable",
      "type": "constructor"
    },
    {
      "anonymous": false,
      "inputs": [
        {
          "indexed": true,
          "internalType": "address",
          "name": "previousOwner",
          "type": "address"
        },
        {
          "indexed": true,
          "internalType": "address",
          "name": "newOwner",
          "type": "address"
        }
      ],
      "name": "OwnershipTransferred",
      "type": "event"
    },
    {
      "inputs": [],
      "name": "owner",
      "outputs": [
        {
          "internalType": "address",
          "name": "",
          "type": "address"
        }
      ],
      "stateMutability": "view",
      "type": "function"
    },
    {
      "inputs": [],
      "name": "renounceOwnership",
      "outputs": [],
      "stateMutability": "nonpayable",
      "type": "function"
    },
    {
      "inputs": [
        {
          "internalType": "address",
          "name": "newOwner",
          "type": "address"
        }
      ],
      "name": "transferOwnership",
      "outputs": [],
      "stateMutability": "nonpayable",
      "type": "function"
    },
    {
      "inputs": [
        {
          "internalType": "address",
          "name": "_a",
          "type": "address"
        }
      ],
      "name": "isDelegated",
      "outputs": [
        {
          "internalType": "bool",
          "name": "",
          "type": "bool"
        }
      ],
      "stateMutability": "view",
      "type": "function"
    },
    {
      "inputs": [
        {
          "internalType": "address",
          "name": "_a",
          "type": "address"
        },
        {
          "internalType": "bool",
          "name": "_bool",
          "type": "bool"
        }
      ],
      "name": "setDelegated",
      "outputs": [],
      "stateMutability": "nonpayable",
      "type": "function"
    }
  ],
  "bytecode": "0x608060405234801561001057600080fd5b5061002d61002261009660201b60201c565b61009e60201b60201c565b600180600061004061009660201b60201c565b73ffffffffffffffffffffffffffffffffffffffff1673ffffffffffffffffffffffffffffffffffffffff16815260200190815260200160002060006101000a81548160ff021916908315150217905550610162565b600033905090565b60008060009054906101000a900473ffffffffffffffffffffffffffffffffffffffff169050816000806101000a81548173ffffffffffffffffffffffffffffffffffffffff021916908373ffffffffffffffffffffffffffffffffffffffff1602179055508173ffffffffffffffffffffffffffffffffffffffff168173ffffffffffffffffffffffffffffffffffffffff167f8be0079c531659141344cd1fd0a4f28419497f9722a3daafe3b4186f6b6457e060405160405180910390a35050565b610650806101716000396000f3fe608060405234801561001057600080fd5b50600436106100575760003560e01c80633e28391d1461005c5780634cb2c8891461008c578063715018a6146100a85780638da5cb5b146100b2578063f2fde38b146100d0575b600080fd5b61007660048036038101906100719190610412565b6100ec565b604051610083919061045a565b60405180910390f35b6100a660048036038101906100a191906104a1565b610142565b005b6100b06101a5565b005b6100ba6101b9565b6040516100c791906104f0565b60405180910390f35b6100ea60048036038101906100e59190610412565b6101e2565b005b6000600160008373ffffffffffffffffffffffffffffffffffffffff1673ffffffffffffffffffffffffffffffffffffffff16815260200190815260200160002060009054906101000a900460ff169050919050565b61014a610265565b80600160008473ffffffffffffffffffffffffffffffffffffffff1673ffffffffffffffffffffffffffffffffffffffff16815260200190815260200160002060006101000a81548160ff0219169083151502179055505050565b6101ad610265565b6101b760006102e3565b565b60008060009054906101000a900473ffffffffffffffffffffffffffffffffffffffff16905090565b6101ea610265565b600073ffffffffffffffffffffffffffffffffffffffff168173ffffffffffffffffffffffffffffffffffffffff1603610259576040517f08c379a00000000000000000000000000000000000000000000000000000000081526004016102509061058e565b60405180910390fd5b610262816102e3565b50565b61026d6103a7565b73ffffffffffffffffffffffffffffffffffffffff1661028b6101b9565b73ffffffffffffffffffffffffffffffffffffffff16146102e1576040517f08c379a00000000000000000000000000000000000000000000000000000000081526004016102d8906105fa565b60405180910390fd5b565b60008060009054906101000a900473ffffffffffffffffffffffffffffffffffffffff169050816000806101000a81548173ffffffffffffffffffffffffffffffffffffffff021916908373ffffffffffffffffffffffffffffffffffffffff1602179055508173ffffffffffffffffffffffffffffffffffffffff168173ffffffffffffffffffffffffffffffffffffffff167f8be0079c531659141344cd1fd0a4f28419497f9722a3daafe3b4186f6b6457e060405160405180910390a35050565b600033905090565b600080fd5b600073ffffffffffffffffffffffffffffffffffffffff82169050919050565b60006103df826103b4565b9050919050565b6103ef816103d4565b81146103fa57600080fd5b50565b60008135905061040c816103e6565b92915050565b600060208284031215610428576104276103af565b5b6000610436848285016103fd565b91505092915050565b60008115159050919050565b6104548161043f565b82525050565b600060208201905061046f600083018461044b565b92915050565b61047e8161043f565b811461048957600080fd5b50565b60008135905061049b81610475565b92915050565b600080604083850312156104b8576104b76103af565b5b60006104c6858286016103fd565b92505060206104d78582860161048c565b9150509250929050565b6104ea816103d4565b82525050565b600060208201905061050560008301846104e1565b92915050565b600082825260208201905092915050565b7f4f776e61626c653a206e6577206f776e657220697320746865207a65726f206160008201527f6464726573730000000000000000000000000000000000000000000000000000602082015250565b600061057860268361050b565b91506105838261051c565b604082019050919050565b600060208201905081810360008301526105a78161056b565b9050919050565b7f4f776e61626c653a2063616c6c6572206973206e6f7420746865206f776e6572600082015250565b60006105e460208361050b565b91506105ef826105ae565b602082019050919050565b60006020820190508181036000830152610613816105d7565b905091905056fea26469706673582212205f6e3e61e024e78a194d676473801ae7b69ca5db8361fda152f1f978646a958464736f6c634300080f0033",
  "immutableReferences": {},
  "source": "// SPDX-License-Identifier: MIT OR Apache-2.0\npragma solidity ^0.8.14;\nimport \"@openzeppelin/contracts/access/Ownable.sol\";\nimport \"@openzeppelin/contracts/utils/Context.sol\";\n\ncontract Delegated is Context, Ownable {\n    mapping(address => bool) private delegates;\n\n    constructor() {\n        delegates[_msgSender()] = true;\n    }\n\n    modifier onlyDelegates() {\n        require(delegates[msg.sender], \"DELEGATED: caller is not delegated\");\n        _;\n    }\n\n    function isDelegated(address _a) public view returns (bool) {\n        return delegates[_a];\n    }\n\n    function setDelegated(address _a, bool _bool) public onlyOwner {\n        delegates[_a] = _bool;\n    }\n}\n",
  "sourcePath": "D:\\Code\\pa-contract-audit-main\\contracts\\Delegated.sol",
  "compiler": {
    "name": "solc",
    "version": "0.8.15+commit.e14f2714.Emscripten.clang"
  },
  "schemaVersion": "3.4.5",
  "updatedAt": "2022-07-06T15:31:06.399Z",
  "devdoc": {
    "kind": "dev",
    "methods": {
      "owner()": {
        "details": "Returns the address of the current owner."
      },
      "renounceOwnership()": {
        "details": "Leaves the contract without owner. It will not be possible to call `onlyOwner` functions anymore. Can only be called by the current owner. NOTE: Renouncing ownership will leave the contract without an owner, thereby removing any functionality that is only available to the owner."
      },
      "transferOwnership(address)": {
        "details": "Transfers ownership of the contract to a new account (`newOwner`). Can only be called by the current owner."
      }
    },
    "version": 1
  },
  "userdoc": {
    "kind": "user",
    "methods": {},
    "version": 1
  }
}