{
  "contractName": "PAStaker",
  "abi": [
    {
      "inputs": [
        {
          "internalType": "address",
          "name": "genesis",
          "type": "address"
        },
        {
          "internalType": "address",
          "name": "c1",
          "type": "address"
        },
        {
          "internalType": "address",
          "name": "psilocybin",
          "type": "address"
        }
      ],
      "stateMutability": "nonpayable",
      "type": "constructor"
    },
    {
      "anonymous": false,
      "inputs": [
        {
          "indexed": true,
          "internalType": "address",
          "name": "previousOwner",
          "type": "address"
        },
        {
          "indexed": true,
          "internalType": "address",
          "name": "newOwner",
          "type": "address"
        }
      ],
      "name": "OwnershipTransferred",
      "type": "event"
    },
    {
      "inputs": [],
      "name": "COMPONENT_1",
      "outputs": [
        {
          "internalType": "contract mockC1",
          "name": "",
          "type": "address"
        }
      ],
      "stateMutability": "view",
      "type": "function"
    },
    {
      "inputs": [],
      "name": "GENESIS",
      "outputs": [
        {
          "internalType": "contract mockGenesis",
          "name": "",
          "type": "address"
        }
      ],
      "stateMutability": "view",
      "type": "function"
    },
    {
      "inputs": [],
      "name": "PSILOCYBIN",
      "outputs": [
        {
          "internalType": "contract mockPsilocybin",
          "name": "",
          "type": "address"
        }
      ],
      "stateMutability": "view",
      "type": "function"
    },
    {
      "inputs": [
        {
          "internalType": "uint256",
          "name": "",
          "type": "uint256"
        }
      ],
      "name": "TOKEN_CONTRACTS",
      "outputs": [
        {
          "internalType": "contract IERC721",
          "name": "",
          "type": "address"
        }
      ],
      "stateMutability": "view",
      "type": "function"
    },
    {
      "inputs": [
        {
          "internalType": "address",
          "name": "_a",
          "type": "address"
        }
      ],
      "name": "isDelegated",
      "outputs": [
        {
          "internalType": "bool",
          "name": "",
          "type": "bool"
        }
      ],
      "stateMutability": "view",
      "type": "function"
    },
    {
      "inputs": [],
      "name": "owner",
      "outputs": [
        {
          "internalType": "address",
          "name": "",
          "type": "address"
        }
      ],
      "stateMutability": "view",
      "type": "function"
    },
    {
      "inputs": [],
      "name": "renounceOwnership",
      "outputs": [],
      "stateMutability": "nonpayable",
      "type": "function"
    },
    {
      "inputs": [
        {
          "internalType": "address",
          "name": "_a",
          "type": "address"
        },
        {
          "internalType": "bool",
          "name": "_bool",
          "type": "bool"
        }
      ],
      "name": "setDelegated",
      "outputs": [],
      "stateMutability": "nonpayable",
      "type": "function"
    },
    {
      "inputs": [
        {
          "internalType": "enum PAStaker.TokenTypes",
          "name": "",
          "type": "uint8"
        },
        {
          "internalType": "uint256",
          "name": "",
          "type": "uint256"
        }
      ],
      "name": "tokenInfo",
      "outputs": [
        {
          "internalType": "address",
          "name": "owner",
          "type": "address"
        },
        {
          "internalType": "uint256",
          "name": "timeStaked",
          "type": "uint256"
        }
      ],
      "stateMutability": "view",
      "type": "function"
    },
    {
      "inputs": [
        {
          "internalType": "address",
          "name": "newOwner",
          "type": "address"
        }
      ],
      "name": "transferOwnership",
      "outputs": [],
      "stateMutability": "nonpayable",
      "type": "function"
    },
    {
      "inputs": [
        {
          "internalType": "enum PAStaker.TokenTypes",
          "name": "_tokenType",
          "type": "uint8"
        },
        {
          "internalType": "uint256",
          "name": "_id",
          "type": "uint256"
        }
      ],
      "name": "timeSinceStaked",
      "outputs": [
        {
          "internalType": "uint256",
          "name": "",
          "type": "uint256"
        }
      ],
      "stateMutability": "view",
      "type": "function"
    },
    {
      "inputs": [
        {
          "internalType": "address",
          "name": "_owner",
          "type": "address"
        },
        {
          "internalType": "enum PAStaker.TokenTypes",
          "name": "_tokenType",
          "type": "uint8"
        },
        {
          "internalType": "uint256",
          "name": "_id",
          "type": "uint256"
        }
      ],
      "name": "isStaked",
      "outputs": [
        {
          "internalType": "bool",
          "name": "",
          "type": "bool"
        }
      ],
      "stateMutability": "view",
      "type": "function"
    },
    {
      "inputs": [
        {
          "internalType": "address",
          "name": "_owner",
          "type": "address"
        },
        {
          "internalType": "enum PAStaker.TokenTypes",
          "name": "_tokenType",
          "type": "uint8"
        }
      ],
      "name": "stakedBalance",
      "outputs": [
        {
          "internalType": "uint256",
          "name": "",
          "type": "uint256"
        }
      ],
      "stateMutability": "view",
      "type": "function"
    },
    {
      "inputs": [
        {
          "internalType": "address",
          "name": "_owner",
          "type": "address"
        },
        {
          "internalType": "enum PAStaker.TokenTypes",
          "name": "_tokenType",
          "type": "uint8"
        }
      ],
      "name": "getStakedTokens",
      "outputs": [
        {
          "internalType": "uint256[]",
          "name": "",
          "type": "uint256[]"
        }
      ],
      "stateMutability": "view",
      "type": "function"
    },
    {
      "inputs": [
        {
          "internalType": "uint256[]",
          "name": "_ids",
          "type": "uint256[]"
        },
        {
          "internalType": "enum PAStaker.TokenTypes",
          "name": "_tokenType",
          "type": "uint8"
        }
      ],
      "name": "batchStake",
      "outputs": [],
      "stateMutability": "nonpayable",
      "type": "function"
    },
    {
      "inputs": [
        {
          "internalType": "uint256",
          "name": "_id",
          "type": "uint256"
        },
        {
          "internalType": "enum PAStaker.TokenTypes",
          "name": "_tokenType",
          "type": "uint8"
        }
      ],
      "name": "unstake",
      "outputs": [],
      "stateMutability": "nonpayable",
      "type": "function"
    },
    {
      "inputs": [
        {
          "internalType": "uint256[]",
          "name": "_ids",
          "type": "uint256[]"
        },
        {
          "internalType": "enum PAStaker.TokenTypes",
          "name": "_tokenType",
          "type": "uint8"
        }
      ],
      "name": "batchUnstake",
      "outputs": [],
      "stateMutability": "nonpayable",
      "type": "function"
    },
    {
      "inputs": [
        {
          "internalType": "uint256",
          "name": "_id",
          "type": "uint256"
        },
        {
          "internalType": "enum PAStaker.TokenTypes",
          "name": "_tokenType",
          "type": "uint8"
        }
      ],
      "name": "delegatedUnstake",
      "outputs": [],
      "stateMutability": "nonpayable",
      "type": "function"
    },
    {
      "inputs": [
        {
          "internalType": "uint256[]",
          "name": "_ids",
          "type": "uint256[]"
        },
        {
          "internalType": "enum PAStaker.TokenTypes",
          "name": "_tokenType",
          "type": "uint8"
        }
      ],
      "name": "delegatedBatchUnstake",
      "outputs": [],
      "stateMutability": "nonpayable",
      "type": "function"
    },
    {
      "inputs": [
        {
          "internalType": "address",
          "name": "",
          "type": "address"
        },
        {
          "internalType": "address",
          "name": "_from",
          "type": "address"
        },
        {
          "internalType": "uint256",
          "name": "_id",
          "type": "uint256"
        },
        {
          "internalType": "bytes",
          "name": "",
          "type": "bytes"
        }
      ],
      "name": "onERC721Received",
      "outputs": [
        {
          "internalType": "bytes4",
          "name": "",
          "type": "bytes4"
        }
      ],
      "stateMutability": "nonpayable",
      "type": "function"
    }
  ],
  "bytecode": "0x60e06040523480156200001157600080fd5b5060405162002910380380620029108339818101604052810190620000379190620003eb565b620000576200004b6200021460201b60201c565b6200021c60201b60201c565b60018060006200006c6200021460201b60201c565b73ffffffffffffffffffffffffffffffffffffffff1673ffffffffffffffffffffffffffffffffffffffff16815260200190815260200160002060006101000a81548160ff0219169083151502179055508273ffffffffffffffffffffffffffffffffffffffff1660808173ffffffffffffffffffffffffffffffffffffffff16815250508173ffffffffffffffffffffffffffffffffffffffff1660a08173ffffffffffffffffffffffffffffffffffffffff16815250508073ffffffffffffffffffffffffffffffffffffffff1660c08173ffffffffffffffffffffffffffffffffffffffff168152505060405180606001604052808473ffffffffffffffffffffffffffffffffffffffff1673ffffffffffffffffffffffffffffffffffffffff1681526020018373ffffffffffffffffffffffffffffffffffffffff1673ffffffffffffffffffffffffffffffffffffffff1681526020018273ffffffffffffffffffffffffffffffffffffffff1673ffffffffffffffffffffffffffffffffffffffff1681525060029060036200020a929190620002e0565b5050505062000447565b600033905090565b60008060009054906101000a900473ffffffffffffffffffffffffffffffffffffffff169050816000806101000a81548173ffffffffffffffffffffffffffffffffffffffff021916908373ffffffffffffffffffffffffffffffffffffffff1602179055508173ffffffffffffffffffffffffffffffffffffffff168173ffffffffffffffffffffffffffffffffffffffff167f8be0079c531659141344cd1fd0a4f28419497f9722a3daafe3b4186f6b6457e060405160405180910390a35050565b82600381019282156200034f579160200282015b828111156200034e5782518260006101000a81548173ffffffffffffffffffffffffffffffffffffffff021916908373ffffffffffffffffffffffffffffffffffffffff16021790555091602001919060010190620002f4565b5b5090506200035e919062000362565b5090565b5b808211156200037d57600081600090555060010162000363565b5090565b600080fd5b600073ffffffffffffffffffffffffffffffffffffffff82169050919050565b6000620003b38262000386565b9050919050565b620003c581620003a6565b8114620003d157600080fd5b50565b600081519050620003e581620003ba565b92915050565b60008060006060848603121562000407576200040662000381565b5b60006200041786828701620003d4565b93505060206200042a86828701620003d4565b92505060406200043d86828701620003d4565b9150509250925092565b60805160a05160c0516124846200048c60003960008181610766015261124b0152600081816103fa01526111ef0152600081816109fb015261119301526124846000f3fe608060405234801561001057600080fd5b506004361061012c5760003560e01c806386fbad9c116100ad578063bc9699f111610071578063bc9699f114610357578063bed08e0b14610373578063ef216af31461038f578063f2fde38b146103ab578063f376d0de146103c75761012c565b806386fbad9c1461028b5780638da5cb5b146102bb57806392f69aee146102d9578063a7433cf514610309578063b7dec1b7146103395761012c565b80634cb2c889116100f45780634cb2c889146101e757806351464e2914610203578063715018a61461022157806377d03e741461022b5780637b4382cd1461025b5761012c565b806302e371de14610131578063150b7a021461014f5780631b38e2121461017f5780633e28391d1461019b5780634432c4e4146101cb575b600080fd5b6101396103f8565b6040516101469190611833565b60405180910390f35b61016960048036038101906101649190611a1c565b61041c565b6040516101769190611ada565b60405180910390f35b61019960048036038101906101949190611b7a565b61058b565b005b6101b560048036038101906101b09190611bda565b6105d5565b6040516101c29190611c22565b60405180910390f35b6101e560048036038101906101e09190611b7a565b61062b565b005b61020160048036038101906101fc9190611c69565b610701565b005b61020b610764565b6040516102189190611cca565b60405180910390f35b610229610788565b005b61024560048036038101906102409190611ce5565b61079c565b6040516102529190611d34565b60405180910390f35b61027560048036038101906102709190611d4f565b610822565b6040516102829190611d9d565b60405180910390f35b6102a560048036038101906102a09190611db8565b610858565b6040516102b29190611c22565b60405180910390f35b6102c36108e9565b6040516102d09190611e1a565b60405180910390f35b6102f360048036038101906102ee9190611e35565b610912565b6040516103009190611d34565b60405180910390f35b610323600480360381019061031e9190611ce5565b610973565b6040516103309190611f33565b60405180910390f35b6103416109f9565b60405161034e9190611f76565b60405180910390f35b610371600480360381019061036c9190611f91565b610a1d565b005b61038d60048036038101906103889190611b7a565b610c6e565b005b6103a960048036038101906103a49190611f91565b610e4c565b005b6103c560048036038101906103c09190611bda565b6110bb565b005b6103e160048036038101906103dc9190611e35565b61113e565b6040516103ef929190611fd1565b60405180910390f35b7f000000000000000000000000000000000000000000000000000000000000000081565b6000806104283361118f565b905060405180604001604052808673ffffffffffffffffffffffffffffffffffffffff168152602001428152506005600083600281111561046c5761046b611ffa565b5b600281111561047e5761047d611ffa565b5b8152602001908152602001600020600086815260200190815260200160002060008201518160000160006101000a81548173ffffffffffffffffffffffffffffffffffffffff021916908373ffffffffffffffffffffffffffffffffffffffff1602179055506020820151816001015590505061057784600660008873ffffffffffffffffffffffffffffffffffffffff1673ffffffffffffffffffffffffffffffffffffffff168152602001908152602001600020600084600281111561054957610548611ffa565b5b600281111561055b5761055a611ffa565b5b81526020019081526020016000206112e590919063ffffffff16565b5063150b7a0260e01b915050949350505050565b60005b838390508110156105cf576105bc8484838181106105af576105ae612029565b5b9050602002013583610a1d565b80806105c790612087565b91505061058e565b50505050565b6000600160008373ffffffffffffffffffffffffffffffffffffffff1673ffffffffffffffffffffffffffffffffffffffff16815260200190815260200160002060009054906101000a900460ff169050919050565b600160003373ffffffffffffffffffffffffffffffffffffffff1673ffffffffffffffffffffffffffffffffffffffff16815260200190815260200160002060009054906101000a900460ff166106b7576040517f08c379a00000000000000000000000000000000000000000000000000000000081526004016106ae90612152565b60405180910390fd5b60005b838390508110156106fb576106e88484838181106106db576106da612029565b5b9050602002013583610e4c565b80806106f390612087565b9150506106ba565b50505050565b6107096112ff565b80600160008473ffffffffffffffffffffffffffffffffffffffff1673ffffffffffffffffffffffffffffffffffffffff16815260200190815260200160002060006101000a81548160ff0219169083151502179055505050565b7f000000000000000000000000000000000000000000000000000000000000000081565b6107906112ff565b61079a600061137d565b565b600061081a600660008573ffffffffffffffffffffffffffffffffffffffff1673ffffffffffffffffffffffffffffffffffffffff16815260200190815260200160002060008460028111156107f5576107f4611ffa565b5b600281111561080757610806611ffa565b5b8152602001908152602001600020611441565b905092915050565b6002816003811061083257600080fd5b016000915054906101000a900473ffffffffffffffffffffffffffffffffffffffff1681565b60006108e082600660008773ffffffffffffffffffffffffffffffffffffffff1673ffffffffffffffffffffffffffffffffffffffff16815260200190815260200160002060008660028111156108b2576108b1611ffa565b5b60028111156108c4576108c3611ffa565b5b815260200190815260200160002061145690919063ffffffff16565b90509392505050565b60008060009054906101000a900473ffffffffffffffffffffffffffffffffffffffff16905090565b60006005600084600281111561092b5761092a611ffa565b5b600281111561093d5761093c611ffa565b5b81526020019081526020016000206000838152602001908152602001600020600101544261096b9190612172565b905092915050565b60606109f1600660008573ffffffffffffffffffffffffffffffffffffffff1673ffffffffffffffffffffffffffffffffffffffff16815260200190815260200160002060008460028111156109cc576109cb611ffa565b5b60028111156109de576109dd611ffa565b5b8152602001908152602001600020611470565b905092915050565b7f000000000000000000000000000000000000000000000000000000000000000081565b600060056000836002811115610a3657610a35611ffa565b5b6002811115610a4857610a47611ffa565b5b8152602001908152602001600020600084815260200190815260200160002060000160009054906101000a900473ffffffffffffffffffffffffffffffffffffffff1690508073ffffffffffffffffffffffffffffffffffffffff163373ffffffffffffffffffffffffffffffffffffffff1614610afb576040517f08c379a0000000000000000000000000000000000000000000000000000000008152600401610af2906121f2565b60405180910390fd5b6040518060400160405280600073ffffffffffffffffffffffffffffffffffffffff168152602001600081525060056000846002811115610b3f57610b3e611ffa565b5b6002811115610b5157610b50611ffa565b5b8152602001908152602001600020600085815260200190815260200160002060008201518160000160006101000a81548173ffffffffffffffffffffffffffffffffffffffff021916908373ffffffffffffffffffffffffffffffffffffffff16021790555060208201518160010155905050610c4a83600660003373ffffffffffffffffffffffffffffffffffffffff1673ffffffffffffffffffffffffffffffffffffffff1681526020019081526020016000206000856002811115610c1c57610c1b611ffa565b5b6002811115610c2e57610c2d611ffa565b5b815260200190815260200160002061149190919063ffffffff16565b50610c69308285856002811115610c6457610c63611ffa565b5b6114ab565b505050565b60005b83839050811015610e465760405180604001604052803373ffffffffffffffffffffffffffffffffffffffff1681526020014281525060056000846002811115610cbe57610cbd611ffa565b5b6002811115610cd057610ccf611ffa565b5b81526020019081526020016000206000868685818110610cf357610cf2612029565b5b90506020020135815260200190815260200160002060008201518160000160006101000a81548173ffffffffffffffffffffffffffffffffffffffff021916908373ffffffffffffffffffffffffffffffffffffffff16021790555060208201518160010155905050610dfb848483818110610d7257610d71612029565b5b90506020020135600660003373ffffffffffffffffffffffffffffffffffffffff1673ffffffffffffffffffffffffffffffffffffffff1681526020019081526020016000206000856002811115610dcd57610dcc611ffa565b5b6002811115610ddf57610dde611ffa565b5b81526020019081526020016000206112e590919063ffffffff16565b50610e333330868685818110610e1457610e13612029565b5b90506020020135856002811115610e2e57610e2d611ffa565b5b6114ab565b8080610e3e90612087565b915050610c71565b50505050565b600160003373ffffffffffffffffffffffffffffffffffffffff1673ffffffffffffffffffffffffffffffffffffffff16815260200190815260200160002060009054906101000a900460ff16610ed8576040517f08c379a0000000000000000000000000000000000000000000000000000000008152600401610ecf90612152565b60405180910390fd5b600060056000836002811115610ef157610ef0611ffa565b5b6002811115610f0357610f02611ffa565b5b8152602001908152602001600020600084815260200190815260200160002060000160009054906101000a900473ffffffffffffffffffffffffffffffffffffffff1690506040518060400160405280600073ffffffffffffffffffffffffffffffffffffffff168152602001600081525060056000846002811115610f8c57610f8b611ffa565b5b6002811115610f9e57610f9d611ffa565b5b8152602001908152602001600020600085815260200190815260200160002060008201518160000160006101000a81548173ffffffffffffffffffffffffffffffffffffffff021916908373ffffffffffffffffffffffffffffffffffffffff1602179055506020820151816001015590505061109783600660008473ffffffffffffffffffffffffffffffffffffffff1673ffffffffffffffffffffffffffffffffffffffff168152602001908152602001600020600085600281111561106957611068611ffa565b5b600281111561107b5761107a611ffa565b5b815260200190815260200160002061149190919063ffffffff16565b506110b63082858560028111156110b1576110b0611ffa565b5b6114ab565b505050565b6110c36112ff565b600073ffffffffffffffffffffffffffffffffffffffff168173ffffffffffffffffffffffffffffffffffffffff1603611132576040517f08c379a000000000000000000000000000000000000000000000000000000000815260040161112990612284565b60405180910390fd5b61113b8161137d565b50565b6005602052816000526040600020602052806000526040600020600091509150508060000160009054906101000a900473ffffffffffffffffffffffffffffffffffffffff16908060010154905082565b60007f000000000000000000000000000000000000000000000000000000000000000073ffffffffffffffffffffffffffffffffffffffff168273ffffffffffffffffffffffffffffffffffffffff16036111ed57600090506112e0565b7f000000000000000000000000000000000000000000000000000000000000000073ffffffffffffffffffffffffffffffffffffffff168273ffffffffffffffffffffffffffffffffffffffff160361124957600190506112e0565b7f000000000000000000000000000000000000000000000000000000000000000073ffffffffffffffffffffffffffffffffffffffff168273ffffffffffffffffffffffffffffffffffffffff16036112a557600290506112e0565b6040517f08c379a00000000000000000000000000000000000000000000000000000000081526004016112d7906122f0565b60405180910390fd5b919050565b60006112f7836000018360001b611598565b905092915050565b611307611608565b73ffffffffffffffffffffffffffffffffffffffff166113256108e9565b73ffffffffffffffffffffffffffffffffffffffff161461137b576040517f08c379a00000000000000000000000000000000000000000000000000000000081526004016113729061235c565b60405180910390fd5b565b60008060009054906101000a900473ffffffffffffffffffffffffffffffffffffffff169050816000806101000a81548173ffffffffffffffffffffffffffffffffffffffff021916908373ffffffffffffffffffffffffffffffffffffffff1602179055508173ffffffffffffffffffffffffffffffffffffffff168173ffffffffffffffffffffffffffffffffffffffff167f8be0079c531659141344cd1fd0a4f28419497f9722a3daafe3b4186f6b6457e060405160405180910390a35050565b600061144f82600001611610565b9050919050565b6000611468836000018360001b611621565b905092915050565b6060600061148083600001611644565b905060608190508092505050919050565b60006114a3836000018360001b6116a0565b905092915050565b600381106114ee576040517f08c379a00000000000000000000000000000000000000000000000000000000081526004016114e5906123c8565b60405180910390fd5b6002816003811061150257611501612029565b5b0160009054906101000a900473ffffffffffffffffffffffffffffffffffffffff1673ffffffffffffffffffffffffffffffffffffffff166323b872dd8585856040518463ffffffff1660e01b8152600401611560939291906123e8565b600060405180830381600087803b15801561157a57600080fd5b505af115801561158e573d6000803e3d6000fd5b5050505050505050565b60006115a48383611621565b6115fd578260000182908060018154018082558091505060019003906000526020600020016000909190919091505582600001805490508360010160008481526020019081526020016000208190555060019050611602565b600090505b92915050565b600033905090565b600081600001805490509050919050565b600080836001016000848152602001908152602001600020541415905092915050565b60608160000180548060200260200160405190810160405280929190818152602001828054801561169457602002820191906000526020600020905b815481526020019060010190808311611680575b50505050509050919050565b600080836001016000848152602001908152602001600020549050600081146117a85760006001826116d29190612172565b90506000600186600001805490506116ea9190612172565b905081811461175957600086600001828154811061170b5761170a612029565b5b906000526020600020015490508087600001848154811061172f5761172e612029565b5b90600052602060002001819055508387600101600083815260200190815260200160002081905550505b8560000180548061176d5761176c61241f565b5b6001900381819060005260206000200160009055905585600101600086815260200190815260200160002060009055600193505050506117ae565b60009150505b92915050565b600073ffffffffffffffffffffffffffffffffffffffff82169050919050565b6000819050919050565b60006117f96117f46117ef846117b4565b6117d4565b6117b4565b9050919050565b600061180b826117de565b9050919050565b600061181d82611800565b9050919050565b61182d81611812565b82525050565b60006020820190506118486000830184611824565b92915050565b6000604051905090565b600080fd5b600080fd5b600061186d826117b4565b9050919050565b61187d81611862565b811461188857600080fd5b50565b60008135905061189a81611874565b92915050565b6000819050919050565b6118b3816118a0565b81146118be57600080fd5b50565b6000813590506118d0816118aa565b92915050565b600080fd5b600080fd5b6000601f19601f8301169050919050565b7f4e487b7100000000000000000000000000000000000000000000000000000000600052604160045260246000fd5b611929826118e0565b810181811067ffffffffffffffff82111715611948576119476118f1565b5b80604052505050565b600061195b61184e565b90506119678282611920565b919050565b600067ffffffffffffffff821115611987576119866118f1565b5b611990826118e0565b9050602081019050919050565b82818337600083830152505050565b60006119bf6119ba8461196c565b611951565b9050828152602081018484840111156119db576119da6118db565b5b6119e684828561199d565b509392505050565b600082601f830112611a0357611a026118d6565b5b8135611a138482602086016119ac565b91505092915050565b60008060008060808587031215611a3657611a35611858565b5b6000611a448782880161188b565b9450506020611a558782880161188b565b9350506040611a66878288016118c1565b925050606085013567ffffffffffffffff811115611a8757611a8661185d565b5b611a93878288016119ee565b91505092959194509250565b60007fffffffff0000000000000000000000000000000000000000000000000000000082169050919050565b611ad481611a9f565b82525050565b6000602082019050611aef6000830184611acb565b92915050565b600080fd5b600080fd5b60008083601f840112611b1557611b146118d6565b5b8235905067ffffffffffffffff811115611b3257611b31611af5565b5b602083019150836020820283011115611b4e57611b4d611afa565b5b9250929050565b60038110611b6257600080fd5b50565b600081359050611b7481611b55565b92915050565b600080600060408486031215611b9357611b92611858565b5b600084013567ffffffffffffffff811115611bb157611bb061185d565b5b611bbd86828701611aff565b93509350506020611bd086828701611b65565b9150509250925092565b600060208284031215611bf057611bef611858565b5b6000611bfe8482850161188b565b91505092915050565b60008115159050919050565b611c1c81611c07565b82525050565b6000602082019050611c376000830184611c13565b92915050565b611c4681611c07565b8114611c5157600080fd5b50565b600081359050611c6381611c3d565b92915050565b60008060408385031215611c8057611c7f611858565b5b6000611c8e8582860161188b565b9250506020611c9f85828601611c54565b9150509250929050565b6000611cb482611800565b9050919050565b611cc481611ca9565b82525050565b6000602082019050611cdf6000830184611cbb565b92915050565b60008060408385031215611cfc57611cfb611858565b5b6000611d0a8582860161188b565b9250506020611d1b85828601611b65565b9150509250929050565b611d2e816118a0565b82525050565b6000602082019050611d496000830184611d25565b92915050565b600060208284031215611d6557611d64611858565b5b6000611d73848285016118c1565b91505092915050565b6000611d8782611800565b9050919050565b611d9781611d7c565b82525050565b6000602082019050611db26000830184611d8e565b92915050565b600080600060608486031215611dd157611dd0611858565b5b6000611ddf8682870161188b565b9350506020611df086828701611b65565b9250506040611e01868287016118c1565b9150509250925092565b611e1481611862565b82525050565b6000602082019050611e2f6000830184611e0b565b92915050565b60008060408385031215611e4c57611e4b611858565b5b6000611e5a85828601611b65565b9250506020611e6b858286016118c1565b9150509250929050565b600081519050919050565b600082825260208201905092915050565b6000819050602082019050919050565b611eaa816118a0565b82525050565b6000611ebc8383611ea1565b60208301905092915050565b6000602082019050919050565b6000611ee082611e75565b611eea8185611e80565b9350611ef583611e91565b8060005b83811015611f26578151611f0d8882611eb0565b9750611f1883611ec8565b925050600181019050611ef9565b5085935050505092915050565b60006020820190508181036000830152611f4d8184611ed5565b905092915050565b6000611f6082611800565b9050919050565b611f7081611f55565b82525050565b6000602082019050611f8b6000830184611f67565b92915050565b60008060408385031215611fa857611fa7611858565b5b6000611fb6858286016118c1565b9250506020611fc785828601611b65565b9150509250929050565b6000604082019050611fe66000830185611e0b565b611ff36020830184611d25565b9392505050565b7f4e487b7100000000000000000000000000000000000000000000000000000000600052602160045260246000fd5b7f4e487b7100000000000000000000000000000000000000000000000000000000600052603260045260246000fd5b7f4e487b7100000000000000000000000000000000000000000000000000000000600052601160045260246000fd5b6000612092826118a0565b91507fffffffffffffffffffffffffffffffffffffffffffffffffffffffffffffffff82036120c4576120c3612058565b5b600182019050919050565b600082825260208201905092915050565b7f44454c4547415445443a2063616c6c6572206973206e6f742064656c6567617460008201527f6564000000000000000000000000000000000000000000000000000000000000602082015250565b600061213c6022836120cf565b9150612147826120e0565b604082019050919050565b6000602082019050818103600083015261216b8161212f565b9050919050565b600061217d826118a0565b9150612188836118a0565b92508282101561219b5761219a612058565b5b828203905092915050565b7f6e6f74206f776e65720000000000000000000000000000000000000000000000600082015250565b60006121dc6009836120cf565b91506121e7826121a6565b602082019050919050565b6000602082019050818103600083015261220b816121cf565b9050919050565b7f4f776e61626c653a206e6577206f776e657220697320746865207a65726f206160008201527f6464726573730000000000000000000000000000000000000000000000000000602082015250565b600061226e6026836120cf565b915061227982612212565b604082019050919050565b6000602082019050818103600083015261229d81612261565b9050919050565b7f77726f6e6720746f6b656e207265636569766564000000000000000000000000600082015250565b60006122da6014836120cf565b91506122e5826122a4565b602082019050919050565b60006020820190508181036000830152612309816122cd565b9050919050565b7f4f776e61626c653a2063616c6c6572206973206e6f7420746865206f776e6572600082015250565b60006123466020836120cf565b915061235182612310565b602082019050919050565b6000602082019050818103600083015261237581612339565b9050919050565b7f696e76616c696420636f6e747261637420747970650000000000000000000000600082015250565b60006123b26015836120cf565b91506123bd8261237c565b602082019050919050565b600060208201905081810360008301526123e1816123a5565b9050919050565b60006060820190506123fd6000830186611e0b565b61240a6020830185611e0b565b6124176040830184611d25565b949350505050565b7f4e487b7100000000000000000000000000000000000000000000000000000000600052603160045260246000fdfea2646970667358221220a1fdd7bd96f1d81a09b147fc5cffdb59f69e4fe0366a642a3c164ba34187b45964736f6c634300080f0033",
  "immutableReferences": {
    "11191": [
      {
        "length": 32,
        "start": 2555
      },
      {
        "length": 32,
        "start": 4499
      }
    ],
    "11194": [
      {
        "length": 32,
        "start": 1018
      },
      {
        "length": 32,
        "start": 4591
      }
    ],
    "11197": [
      {
        "length": 32,
        "start": 1894
      },
      {
        "length": 32,
        "start": 4683
      }
    ]
  },
  "source": "// SPDX-License-Identifier: MIT OR Apache-2.0\npragma solidity ^0.8.10;\n\nimport \"@openzeppelin/contracts/token/ERC721/utils/ERC721Holder.sol\";\nimport \"@openzeppelin/contracts/utils/structs/EnumerableSet.sol\";\nimport \"@openzeppelin/contracts/token/ERC721/IERC721.sol\";\nimport \"@openzeppelin/contracts/token/ERC20/IERC20.sol\";\nimport { Delegated } from \"./Delegated.sol\";\n\n/** @dev uncomment for prod */\nimport { mockGenesis } from \"./mockGenesis.sol\";\nimport { mockC1 } from \"./mockC1.sol\";\nimport { mockPsilocybin } from \"./mockPsilocybin.sol\";\nimport { PSYToken } from \"./PSYToken.sol\";\nimport \"hardhat/console.sol\";\n\ncontract PAStaker is ERC721Holder, Delegated { \n    using EnumerableSet for EnumerableSet.UintSet;\n\n    /** @dev remove below for prod. Will deploy all separating when rinkeby testing */\n    mockGenesis    public immutable GENESIS;\n    mockC1         public immutable COMPONENT_1;\n    mockPsilocybin public immutable PSILOCYBIN;\n    // PSYToken       public immutable PSYTOKEN    = new PSYToken(address(this)); // if this is never used, why declair it? \n    IERC721[3] public TOKEN_CONTRACTS;\n    constructor(address genesis, address c1, address psilocybin) {\n        GENESIS = mockGenesis(genesis);\n        COMPONENT_1 = mockC1(c1);\n        PSILOCYBIN = mockPsilocybin(psilocybin);\n        TOKEN_CONTRACTS = [\n            IERC721((genesis)), \n            IERC721((c1)), \n            IERC721((psilocybin))\n        ];\n    }\n    /** @dev remove above for prod */\n\n    /** @dev uncomment for prod */\n    // IERC721 public constant GENESIS = IERC721(0x75E95ba5997Eb235F40eCF8347cDb11F18ff640B);\n    // IERC721 public constant COMPONENT_1 = IERC721(0x5501024dDb740266Fa0d69d19809EC86dB5E3f8b);\n    // IERC721 public constant PSILOCYBIN = IERC721(0x11ca9693156929EE2e7E1470C5E1A55b413e9007);\n    // IERC721[3] constant tokenContracts = [ GENESIS, COMPONENT_1, PSILOCYBIN ];\n    ///////////// this array is redundant. remove it\n\n    enum TokenTypes { Genesis, Component1, Psilocybin }\n    struct TokenInfo { address owner; uint256 timeStaked; }\n    mapping(TokenTypes => mapping(uint256 => TokenInfo)) public tokenInfo;\n    mapping(address => mapping(TokenTypes => EnumerableSet.UintSet)) stakedTokens; // just use balanceOf(addr) and ownerOf to calculate it. saving it in storage is redundant and expensive\n\n    /**\n     * VIEW FUNCTIONS\n     */\n    function timeSinceStaked(TokenTypes _tokenType, uint256 _id) external view returns (uint256) { // would make it so this getter returns all the struct info\n        return block.timestamp - tokenInfo[_tokenType][_id].timeStaked;\n    }\n\n    function isStaked(address _owner, TokenTypes _tokenType, uint256 _id) external view returns (bool) {\n        return stakedTokens[_owner][_tokenType].contains(_id);\n    }\n\n    function stakedBalance(address _owner, TokenTypes _tokenType) external view returns (uint256) {\n        return stakedTokens[_owner][_tokenType].length();\n    }\n\n    function getStakedTokens(address _owner, TokenTypes _tokenType) external view returns (uint256[] memory) {\n        return stakedTokens[_owner][_tokenType].values();\n    }\n\n    // why use the complexity of openzeppelin enumerable sets if you can do it much more simplified with an external\n    // function with a loop? this function is only going to be called externally anyways...\n    // it only makes gas more expensive using openzeppelins sets\n    // besides.. to know if a token is staked you only need it's type and ID\n    // it might be simpler to read using openzeppelin but the tradeoff is gas. in my opinion gas > readablity.\n    // don't get me wrong though.. make sure everything is readable but simplify it as much as you can\n\n    /**\n     * USER FUNCTIONS\n     */\n     /** @dev batchStake requires setApprovalForAll before using */\n    function batchStake(uint256[] calldata _ids, TokenTypes _tokenType) external {\n        for(uint i = 0; i < _ids.length; i++) {\n            tokenInfo[_tokenType][_ids[i]] = TokenInfo(msg.sender, block.timestamp); // you should set them one by one to avoid creating a memory instance\n            stakedTokens[msg.sender][_tokenType].add(_ids[i]);\n            _contractTransfer(msg.sender, address(this), _ids[i], uint256(_tokenType));\n        }\n        // unoptimized loop\n    }\n\n    function unstake(uint256 _id, TokenTypes _tokenType) public {\n        address _owner = tokenInfo[_tokenType][_id].owner;\n        require(msg.sender == _owner, \"not owner\");\n\n        tokenInfo[_tokenType][_id] = TokenInfo(address(0), 0);  // you should set them one by one to avoid creating a memory instance\n        stakedTokens[msg.sender][_tokenType].remove(_id); \n        _contractTransfer(address(this), _owner, _id, uint(_tokenType));\n    }\n\n    function batchUnstake(uint256[] calldata _ids, TokenTypes _tokenType) external {\n        for(uint i = 0; i < _ids.length; i++) {\n            unstake(_ids[i], _tokenType);\n        }\n    }\n\n    // unstaking through here will not give the person any tokens.. there are simpler ways to do so.\n\n    /**\n     * ONLY DELEGATES\n     */\n     /** @dev this function can only be used by specific addresses to unstake tokens and return them back to their owner */\n    function delegatedUnstake(uint256 _id, TokenTypes _tokenType) public onlyDelegates {\n        address _owner = tokenInfo[_tokenType][_id].owner;\n        tokenInfo[_tokenType][_id] = TokenInfo(address(0), 0); // more gas efficiant to set them one by one, or just use delete\n        stakedTokens[_owner][_tokenType].remove(_id); \n        _contractTransfer(address(this), _owner, _id, uint(_tokenType));\n    }\n\n    function delegatedBatchUnstake(uint256[] calldata _ids, TokenTypes _tokenType) external onlyDelegates {\n        for(uint i = 0; i < _ids.length; i++) {\n            delegatedUnstake(_ids[i], _tokenType);\n        }\n    }\n\n    /**\n     * PRIVATE FUNCTIONS\n     */\n     function _contractTransfer(address _from, address _to, uint256 _id, uint256 _contractIndex) private {\n        require(_contractIndex < 3, \"invalid contract type\");\n        TOKEN_CONTRACTS[_contractIndex].transferFrom(_from, _to, _id);\n        // don't use the array. it is redundant and consumes more gas. if you want to use the array so ok.. but don't save the other addresses on storage as well..\n    }\n\n    function _getContractType(address _contract) private view returns (TokenTypes) {\n        if (_contract == address(GENESIS)) return TokenTypes.Genesis;\n        if (_contract == address(COMPONENT_1)) return TokenTypes.Component1;\n        if (_contract == address(PSILOCYBIN)) return TokenTypes.Psilocybin;\n        revert(\"wrong token received\");\n    }\n\n    /**\n     * OVERRIDES\n     */\n    function onERC721Received(\n        address, // unused\n        address _from,\n        uint256 _id,\n        bytes memory // unused\n    ) public override returns (bytes4) {\n        TokenTypes _contractType = _getContractType(msg.sender);\n        tokenInfo[_contractType][_id] = TokenInfo(_from, block.timestamp);\n\n        stakedTokens[_from][_contractType].add(_id);\n\n        return this.onERC721Received.selector;\n    }\n\n    // if someone uses `transferFrom` so this method will never be called. \n}\n\n/***************************************\n * @author:                          *\n * @team:   Asteria   -                  *\n ****************************************/",
  "sourcePath": "D:\\Code\\pa-contract-audit-main\\contracts\\PAStaker.sol",
  "compiler": {
    "name": "solc",
    "version": "0.8.15+commit.e14f2714.Emscripten.clang"
  },
  "schemaVersion": "3.4.5",
  "updatedAt": "2022-07-06T15:31:06.587Z",
  "devdoc": {
    "kind": "dev",
    "methods": {
      "batchStake(uint256[],uint8)": {
        "details": "batchStake requires setApprovalForAll before using "
      },
      "delegatedUnstake(uint256,uint8)": {
        "details": "this function can only be used by specific addresses to unstake tokens and return them back to their owner "
      },
      "owner()": {
        "details": "Returns the address of the current owner."
      },
      "renounceOwnership()": {
        "details": "Leaves the contract without owner. It will not be possible to call `onlyOwner` functions anymore. Can only be called by the current owner. NOTE: Renouncing ownership will leave the contract without an owner, thereby removing any functionality that is only available to the owner."
      },
      "transferOwnership(address)": {
        "details": "Transfers ownership of the contract to a new account (`newOwner`). Can only be called by the current owner."
      }
    },
    "stateVariables": {
      "GENESIS": {
        "details": "remove below for prod. Will deploy all separating when rinkeby testing "
      }
    },
    "version": 1
  },
  "userdoc": {
    "kind": "user",
    "methods": {
      "onERC721Received(address,address,uint256,bytes)": {
        "notice": "OVERRIDES"
      },
      "timeSinceStaked(uint8,uint256)": {
        "notice": "VIEW FUNCTIONS"
      }
    },
    "version": 1
  }
}