{
  "contractName": "PAStaker",
  "abi": [
    {
      "inputs": [
        {
          "internalType": "address",
          "name": "_genesis",
          "type": "address"
        },
        {
          "internalType": "address",
          "name": "_component1",
          "type": "address"
        },
        {
          "internalType": "address",
          "name": "_psilocybin",
          "type": "address"
        }
      ],
      "stateMutability": "nonpayable",
      "type": "constructor"
    },
    {
      "anonymous": false,
      "inputs": [
        {
          "indexed": true,
          "internalType": "address",
          "name": "previousOwner",
          "type": "address"
        },
        {
          "indexed": true,
          "internalType": "address",
          "name": "newOwner",
          "type": "address"
        }
      ],
      "name": "OwnershipTransferred",
      "type": "event"
    },
    {
      "inputs": [],
      "name": "COMPONENT_1",
      "outputs": [
        {
          "internalType": "contract IERC721",
          "name": "",
          "type": "address"
        }
      ],
      "stateMutability": "view",
      "type": "function"
    },
    {
      "inputs": [],
      "name": "GENESIS",
      "outputs": [
        {
          "internalType": "contract IERC721",
          "name": "",
          "type": "address"
        }
      ],
      "stateMutability": "view",
      "type": "function"
    },
    {
      "inputs": [],
      "name": "PSILOCYBIN",
      "outputs": [
        {
          "internalType": "contract IERC721",
          "name": "",
          "type": "address"
        }
      ],
      "stateMutability": "view",
      "type": "function"
    },
    {
      "inputs": [
        {
          "internalType": "uint256",
          "name": "",
          "type": "uint256"
        }
      ],
      "name": "TOKEN_CONTRACTS",
      "outputs": [
        {
          "internalType": "contract IERC721",
          "name": "",
          "type": "address"
        }
      ],
      "stateMutability": "view",
      "type": "function"
    },
    {
      "inputs": [
        {
          "internalType": "address",
          "name": "_a",
          "type": "address"
        }
      ],
      "name": "isDelegated",
      "outputs": [
        {
          "internalType": "bool",
          "name": "",
          "type": "bool"
        }
      ],
      "stateMutability": "view",
      "type": "function"
    },
    {
      "inputs": [],
      "name": "owner",
      "outputs": [
        {
          "internalType": "address",
          "name": "",
          "type": "address"
        }
      ],
      "stateMutability": "view",
      "type": "function"
    },
    {
      "inputs": [],
      "name": "renounceOwnership",
      "outputs": [],
      "stateMutability": "nonpayable",
      "type": "function"
    },
    {
      "inputs": [
        {
          "internalType": "address",
          "name": "_a",
          "type": "address"
        },
        {
          "internalType": "bool",
          "name": "_bool",
          "type": "bool"
        }
      ],
      "name": "setDelegated",
      "outputs": [],
      "stateMutability": "nonpayable",
      "type": "function"
    },
    {
      "inputs": [
        {
          "internalType": "enum PAStaker.TokenType",
          "name": "",
          "type": "uint8"
        },
        {
          "internalType": "uint256",
          "name": "",
          "type": "uint256"
        }
      ],
      "name": "tokenInfo",
      "outputs": [
        {
          "internalType": "address",
          "name": "owner",
          "type": "address"
        },
        {
          "internalType": "uint256",
          "name": "timeStaked",
          "type": "uint256"
        }
      ],
      "stateMutability": "view",
      "type": "function"
    },
    {
      "inputs": [
        {
          "internalType": "address",
          "name": "newOwner",
          "type": "address"
        }
      ],
      "name": "transferOwnership",
      "outputs": [],
      "stateMutability": "nonpayable",
      "type": "function"
    },
    {
      "inputs": [
        {
          "internalType": "enum PAStaker.TokenType",
          "name": "_tokenType",
          "type": "uint8"
        },
        {
          "internalType": "uint256",
          "name": "_id",
          "type": "uint256"
        }
      ],
      "name": "timeSinceStaked",
      "outputs": [
        {
          "internalType": "uint256",
          "name": "",
          "type": "uint256"
        }
      ],
      "stateMutability": "view",
      "type": "function"
    },
    {
      "inputs": [
        {
          "internalType": "enum PAStaker.TokenType",
          "name": "_tokenType",
          "type": "uint8"
        },
        {
          "internalType": "uint256[]",
          "name": "_ids",
          "type": "uint256[]"
        }
      ],
      "name": "batchTimeSinceStaked",
      "outputs": [
        {
          "internalType": "uint256[]",
          "name": "",
          "type": "uint256[]"
        }
      ],
      "stateMutability": "view",
      "type": "function"
    },
    {
      "inputs": [
        {
          "internalType": "address",
          "name": "_owner",
          "type": "address"
        },
        {
          "internalType": "enum PAStaker.TokenType",
          "name": "_tokenType",
          "type": "uint8"
        },
        {
          "internalType": "uint256",
          "name": "_id",
          "type": "uint256"
        }
      ],
      "name": "isStaked",
      "outputs": [
        {
          "internalType": "bool",
          "name": "",
          "type": "bool"
        }
      ],
      "stateMutability": "view",
      "type": "function"
    },
    {
      "inputs": [
        {
          "internalType": "address",
          "name": "_owner",
          "type": "address"
        },
        {
          "internalType": "enum PAStaker.TokenType",
          "name": "_tokenType",
          "type": "uint8"
        }
      ],
      "name": "stakedBalance",
      "outputs": [
        {
          "internalType": "uint256",
          "name": "",
          "type": "uint256"
        }
      ],
      "stateMutability": "view",
      "type": "function"
    },
    {
      "inputs": [
        {
          "internalType": "address",
          "name": "_owner",
          "type": "address"
        },
        {
          "internalType": "enum PAStaker.TokenType",
          "name": "_tokenType",
          "type": "uint8"
        }
      ],
      "name": "getStakedTokens",
      "outputs": [
        {
          "internalType": "uint256[]",
          "name": "",
          "type": "uint256[]"
        }
      ],
      "stateMutability": "view",
      "type": "function"
    },
    {
      "inputs": [
        {
          "internalType": "uint256[]",
          "name": "_ids",
          "type": "uint256[]"
        },
        {
          "internalType": "enum PAStaker.TokenType",
          "name": "_tokenType",
          "type": "uint8"
        }
      ],
      "name": "batchStake",
      "outputs": [],
      "stateMutability": "nonpayable",
      "type": "function"
    },
    {
      "inputs": [
        {
          "internalType": "uint256",
          "name": "_id",
          "type": "uint256"
        },
        {
          "internalType": "enum PAStaker.TokenType",
          "name": "_tokenType",
          "type": "uint8"
        }
      ],
      "name": "unstake",
      "outputs": [],
      "stateMutability": "nonpayable",
      "type": "function"
    },
    {
      "inputs": [
        {
          "internalType": "uint256[]",
          "name": "_ids",
          "type": "uint256[]"
        },
        {
          "internalType": "enum PAStaker.TokenType",
          "name": "_tokenType",
          "type": "uint8"
        }
      ],
      "name": "batchUnstake",
      "outputs": [],
      "stateMutability": "nonpayable",
      "type": "function"
    },
    {
      "inputs": [
        {
          "internalType": "uint256",
          "name": "_id",
          "type": "uint256"
        },
        {
          "internalType": "enum PAStaker.TokenType",
          "name": "_tokenType",
          "type": "uint8"
        }
      ],
      "name": "delegatedUnstake",
      "outputs": [],
      "stateMutability": "nonpayable",
      "type": "function"
    },
    {
      "inputs": [
        {
          "internalType": "uint256[]",
          "name": "_ids",
          "type": "uint256[]"
        },
        {
          "internalType": "enum PAStaker.TokenType",
          "name": "_tokenType",
          "type": "uint8"
        }
      ],
      "name": "delegatedBatchUnstake",
      "outputs": [],
      "stateMutability": "nonpayable",
      "type": "function"
    },
    {
      "inputs": [
        {
          "internalType": "address",
          "name": "",
          "type": "address"
        },
        {
          "internalType": "address",
          "name": "_from",
          "type": "address"
        },
        {
          "internalType": "uint256",
          "name": "_id",
          "type": "uint256"
        },
        {
          "internalType": "bytes",
          "name": "",
          "type": "bytes"
        }
      ],
      "name": "onERC721Received",
      "outputs": [
        {
          "internalType": "bytes4",
          "name": "",
          "type": "bytes4"
        }
      ],
      "stateMutability": "nonpayable",
      "type": "function"
    }
  ],
  "bytecode": "0x60e06040523480156200001157600080fd5b5060405162002b7538038062002b758339818101604052810190620000379190620003f1565b620000576200004b6200021a60201b60201c565b6200022260201b60201c565b60018060006200006c6200021a60201b60201c565b73ffffffffffffffffffffffffffffffffffffffff1673ffffffffffffffffffffffffffffffffffffffff16815260200190815260200160002060006101000a81548160ff0219169083151502179055508273ffffffffffffffffffffffffffffffffffffffff1660808173ffffffffffffffffffffffffffffffffffffffff16815250508173ffffffffffffffffffffffffffffffffffffffff1660a08173ffffffffffffffffffffffffffffffffffffffff16815250508073ffffffffffffffffffffffffffffffffffffffff1660c08173ffffffffffffffffffffffffffffffffffffffff1681525050604051806060016040528060805173ffffffffffffffffffffffffffffffffffffffff1673ffffffffffffffffffffffffffffffffffffffff16815260200160a05173ffffffffffffffffffffffffffffffffffffffff1673ffffffffffffffffffffffffffffffffffffffff16815260200160c05173ffffffffffffffffffffffffffffffffffffffff1673ffffffffffffffffffffffffffffffffffffffff16815250600290600362000210929190620002e6565b505050506200044d565b600033905090565b60008060009054906101000a900473ffffffffffffffffffffffffffffffffffffffff169050816000806101000a81548173ffffffffffffffffffffffffffffffffffffffff021916908373ffffffffffffffffffffffffffffffffffffffff1602179055508173ffffffffffffffffffffffffffffffffffffffff168173ffffffffffffffffffffffffffffffffffffffff167f8be0079c531659141344cd1fd0a4f28419497f9722a3daafe3b4186f6b6457e060405160405180910390a35050565b826003810192821562000355579160200282015b82811115620003545782518260006101000a81548173ffffffffffffffffffffffffffffffffffffffff021916908373ffffffffffffffffffffffffffffffffffffffff16021790555091602001919060010190620002fa565b5b50905062000364919062000368565b5090565b5b808211156200038357600081600090555060010162000369565b5090565b600080fd5b600073ffffffffffffffffffffffffffffffffffffffff82169050919050565b6000620003b9826200038c565b9050919050565b620003cb81620003ac565b8114620003d757600080fd5b50565b600081519050620003eb81620003c0565b92915050565b6000806000606084860312156200040d576200040c62000387565b5b60006200041d86828701620003da565b93505060206200043086828701620003da565b92505060406200044386828701620003da565b9150509250925092565b60805160a05160c0516126e36200049260003960008181610747015261131501526000818161043501526112b9015260008181610aaf015261125d01526126e36000f3fe608060405234801561001057600080fd5b50600436106101375760003560e01c80637b4382cd116100b8578063b7dec1b71161007c578063b7dec1b714610374578063bc9699f114610392578063bed08e0b146103ae578063ef216af3146103ca578063f2fde38b146103e6578063f376d0de1461040257610137565b80637b4382cd1461029657806386fbad9c146102c65780638da5cb5b146102f657806392f69aee14610314578063a7433cf51461034457610137565b80634cb2c889116100ff5780634cb2c889146101f257806351464e291461020e5780636fd6da6f1461022c578063715018a61461025c57806377d03e741461026657610137565b806302e371de1461013c578063150b7a021461015a5780631b38e2121461018a5780633e28391d146101a65780634432c4e4146101d6575b600080fd5b610144610433565b60405161015191906119ea565b60405180910390f35b610174600480360381019061016f9190611bd3565b610457565b6040516101819190611c91565b60405180910390f35b6101a4600480360381019061019f9190611d31565b610604565b005b6101c060048036038101906101bb9190611d91565b610648565b6040516101cd9190611dd9565b60405180910390f35b6101f060048036038101906101eb9190611d31565b61069e565b005b61020c60048036038101906102079190611e20565b6106e2565b005b610216610745565b60405161022391906119ea565b60405180910390f35b61024660048036038101906102419190611e60565b610769565b6040516102539190611f7e565b60405180910390f35b610264610827565b005b610280600480360381019061027b9190611fa0565b61083b565b60405161028d9190611fef565b60405180910390f35b6102b060048036038101906102ab919061200a565b6108c1565b6040516102bd91906119ea565b60405180910390f35b6102e060048036038101906102db9190612037565b6108f7565b6040516102ed9190611dd9565b60405180910390f35b6102fe610988565b60405161030b9190612099565b60405180910390f35b61032e600480360381019061032991906120b4565b6109b1565b60405161033b9190611fef565b60405180910390f35b61035e60048036038101906103599190611fa0565b610a27565b60405161036b9190611f7e565b60405180910390f35b61037c610aad565b60405161038991906119ea565b60405180910390f35b6103ac60048036038101906103a791906120f4565b610ad1565b005b6103c860048036038101906103c39190611d31565b610d11565b005b6103e460048036038101906103df91906120f4565b610f27565b005b61040060048036038101906103fb9190611d91565b611185565b005b61041c600480360381019061041791906120b4565b611208565b60405161042a929190612134565b60405180910390f35b7f000000000000000000000000000000000000000000000000000000000000000081565b60008061046333611259565b905060405180604001604052808673ffffffffffffffffffffffffffffffffffffffff16815260200142815250600560008360028111156104a7576104a661215d565b5b60028111156104b9576104b861215d565b5b8152602001908152602001600020600086815260200190815260200160002060008201518160000160006101000a81548173ffffffffffffffffffffffffffffffffffffffff021916908373ffffffffffffffffffffffffffffffffffffffff160217905550602082015181600101559050506105b284600660008873ffffffffffffffffffffffffffffffffffffffff1673ffffffffffffffffffffffffffffffffffffffff16815260200190815260200160002060008460028111156105845761058361215d565b5b60028111156105965761059561215d565b5b81526020019081526020016000206113af90919063ffffffff16565b6105f1576040517f08c379a00000000000000000000000000000000000000000000000000000000081526004016105e8906121e9565b60405180910390fd5b63150b7a0260e01b915050949350505050565b60005b838390508110156106425761063584848381811061062857610627612209565b5b9050602002013583610ad1565b8080600101915050610607565b50505050565b6000600160008373ffffffffffffffffffffffffffffffffffffffff1673ffffffffffffffffffffffffffffffffffffffff16815260200190815260200160002060009054906101000a900460ff169050919050565b60005b838390508110156106dc576106cf8484838181106106c2576106c1612209565b5b9050602002013583610f27565b80806001019150506106a1565b50505050565b6106ea6113c9565b80600160008473ffffffffffffffffffffffffffffffffffffffff1673ffffffffffffffffffffffffffffffffffffffff16815260200190815260200160002060006101000a81548160ff0219169083151502179055505050565b7f000000000000000000000000000000000000000000000000000000000000000081565b6060600083839050905060008167ffffffffffffffff81111561078f5761078e611aa8565b5b6040519080825280602002602001820160405280156107bd5781602001602082028036833780820191505090505b50905060005b8281101561081a576107ee878787848181106107e2576107e1612209565b5b905060200201356109b1565b82828151811061080157610800612209565b5b60200260200101818152505080806001019150506107c3565b5080925050509392505050565b61082f6113c9565b6108396000611447565b565b60006108b9600660008573ffffffffffffffffffffffffffffffffffffffff1673ffffffffffffffffffffffffffffffffffffffff16815260200190815260200160002060008460028111156108945761089361215d565b5b60028111156108a6576108a561215d565b5b815260200190815260200160002061150b565b905092915050565b600281600381106108d157600080fd5b016000915054906101000a900473ffffffffffffffffffffffffffffffffffffffff1681565b600061097f82600660008773ffffffffffffffffffffffffffffffffffffffff1673ffffffffffffffffffffffffffffffffffffffff16815260200190815260200160002060008660028111156109515761095061215d565b5b60028111156109635761096261215d565b5b815260200190815260200160002061152090919063ffffffff16565b90509392505050565b60008060009054906101000a900473ffffffffffffffffffffffffffffffffffffffff16905090565b600080600560008560028111156109cb576109ca61215d565b5b60028111156109dd576109dc61215d565b5b8152602001908152602001600020600084815260200190815260200160002060010154905060008114610a1b578042610a169190612267565b610a1e565b60005b91505092915050565b6060610aa5600660008573ffffffffffffffffffffffffffffffffffffffff1673ffffffffffffffffffffffffffffffffffffffff1681526020019081526020016000206000846002811115610a8057610a7f61215d565b5b6002811115610a9257610a9161215d565b5b815260200190815260200160002061153a565b905092915050565b7f000000000000000000000000000000000000000000000000000000000000000081565b600060056000836002811115610aea57610ae961215d565b5b6002811115610afc57610afb61215d565b5b8152602001908152602001600020600084815260200190815260200160002060000160009054906101000a900473ffffffffffffffffffffffffffffffffffffffff1690508073ffffffffffffffffffffffffffffffffffffffff163373ffffffffffffffffffffffffffffffffffffffff1614610baf576040517f08c379a0000000000000000000000000000000000000000000000000000000008152600401610ba6906122e7565b60405180910390fd5b60056000836002811115610bc657610bc561215d565b5b6002811115610bd857610bd761215d565b5b81526020019081526020016000206000848152602001908152602001600020600080820160006101000a81549073ffffffffffffffffffffffffffffffffffffffff021916905560018201600090555050610caf83600660003373ffffffffffffffffffffffffffffffffffffffff1673ffffffffffffffffffffffffffffffffffffffff1681526020019081526020016000206000856002811115610c8157610c8061215d565b5b6002811115610c9357610c9261215d565b5b815260200190815260200160002061155b90919063ffffffff16565b610cee576040517f08c379a0000000000000000000000000000000000000000000000000000000008152600401610ce590612353565b60405180910390fd5b610d0c308285856002811115610d0757610d0661215d565b5b611575565b505050565b60005b83839050811015610f215760405180604001604052803373ffffffffffffffffffffffffffffffffffffffff1681526020014281525060056000846002811115610d6157610d6061215d565b5b6002811115610d7357610d7261215d565b5b81526020019081526020016000206000868685818110610d9657610d95612209565b5b90506020020135815260200190815260200160002060008201518160000160006101000a81548173ffffffffffffffffffffffffffffffffffffffff021916908373ffffffffffffffffffffffffffffffffffffffff16021790555060208201518160010155905050610e9e848483818110610e1557610e14612209565b5b90506020020135600660003373ffffffffffffffffffffffffffffffffffffffff1673ffffffffffffffffffffffffffffffffffffffff1681526020019081526020016000206000856002811115610e7057610e6f61215d565b5b6002811115610e8257610e8161215d565b5b81526020019081526020016000206113af90919063ffffffff16565b610edd576040517f08c379a0000000000000000000000000000000000000000000000000000000008152600401610ed4906123bf565b60405180910390fd5b610f143330868685818110610ef557610ef4612209565b5b90506020020135856002811115610f0f57610f0e61215d565b5b611662565b8080600101915050610d14565b50505050565b600160003373ffffffffffffffffffffffffffffffffffffffff1673ffffffffffffffffffffffffffffffffffffffff16815260200190815260200160002060009054906101000a900460ff16610fb3576040517f08c379a0000000000000000000000000000000000000000000000000000000008152600401610faa90612451565b60405180910390fd5b600060056000836002811115610fcc57610fcb61215d565b5b6002811115610fde57610fdd61215d565b5b8152602001908152602001600020600084815260200190815260200160002060000160009054906101000a900473ffffffffffffffffffffffffffffffffffffffff1690506005600083600281111561103a5761103961215d565b5b600281111561104c5761104b61215d565b5b81526020019081526020016000206000848152602001908152602001600020600080820160006101000a81549073ffffffffffffffffffffffffffffffffffffffff02191690556001820160009055505061112383600660008473ffffffffffffffffffffffffffffffffffffffff1673ffffffffffffffffffffffffffffffffffffffff16815260200190815260200160002060008560028111156110f5576110f461215d565b5b60028111156111075761110661215d565b5b815260200190815260200160002061155b90919063ffffffff16565b611162576040517f08c379a000000000000000000000000000000000000000000000000000000000815260040161115990612353565b60405180910390fd5b61118030828585600281111561117b5761117a61215d565b5b611575565b505050565b61118d6113c9565b600073ffffffffffffffffffffffffffffffffffffffff168173ffffffffffffffffffffffffffffffffffffffff16036111fc576040517f08c379a00000000000000000000000000000000000000000000000000000000081526004016111f3906124e3565b60405180910390fd5b61120581611447565b50565b6005602052816000526040600020602052806000526040600020600091509150508060000160009054906101000a900473ffffffffffffffffffffffffffffffffffffffff16908060010154905082565b60007f000000000000000000000000000000000000000000000000000000000000000073ffffffffffffffffffffffffffffffffffffffff168273ffffffffffffffffffffffffffffffffffffffff16036112b757600090506113aa565b7f000000000000000000000000000000000000000000000000000000000000000073ffffffffffffffffffffffffffffffffffffffff168273ffffffffffffffffffffffffffffffffffffffff160361131357600190506113aa565b7f000000000000000000000000000000000000000000000000000000000000000073ffffffffffffffffffffffffffffffffffffffff168273ffffffffffffffffffffffffffffffffffffffff160361136f57600290506113aa565b6040517f08c379a00000000000000000000000000000000000000000000000000000000081526004016113a19061254f565b60405180910390fd5b919050565b60006113c1836000018360001b61174f565b905092915050565b6113d16117bf565b73ffffffffffffffffffffffffffffffffffffffff166113ef610988565b73ffffffffffffffffffffffffffffffffffffffff1614611445576040517f08c379a000000000000000000000000000000000000000000000000000000000815260040161143c906125bb565b60405180910390fd5b565b60008060009054906101000a900473ffffffffffffffffffffffffffffffffffffffff169050816000806101000a81548173ffffffffffffffffffffffffffffffffffffffff021916908373ffffffffffffffffffffffffffffffffffffffff1602179055508173ffffffffffffffffffffffffffffffffffffffff168173ffffffffffffffffffffffffffffffffffffffff167f8be0079c531659141344cd1fd0a4f28419497f9722a3daafe3b4186f6b6457e060405160405180910390a35050565b6000611519826000016117c7565b9050919050565b6000611532836000018360001b6117d8565b905092915050565b6060600061154a836000016117fb565b905060608190508092505050919050565b600061156d836000018360001b611857565b905092915050565b600381106115b8576040517f08c379a00000000000000000000000000000000000000000000000000000000081526004016115af90612627565b60405180910390fd5b600281600381106115cc576115cb612209565b5b0160009054906101000a900473ffffffffffffffffffffffffffffffffffffffff1673ffffffffffffffffffffffffffffffffffffffff166342842e0e8585856040518463ffffffff1660e01b815260040161162a93929190612647565b600060405180830381600087803b15801561164457600080fd5b505af1158015611658573d6000803e3d6000fd5b5050505050505050565b600381106116a5576040517f08c379a000000000000000000000000000000000000000000000000000000000815260040161169c90612627565b60405180910390fd5b600281600381106116b9576116b8612209565b5b0160009054906101000a900473ffffffffffffffffffffffffffffffffffffffff1673ffffffffffffffffffffffffffffffffffffffff166323b872dd8585856040518463ffffffff1660e01b815260040161171793929190612647565b600060405180830381600087803b15801561173157600080fd5b505af1158015611745573d6000803e3d6000fd5b5050505050505050565b600061175b83836117d8565b6117b45782600001829080600181540180825580915050600190039060005260206000200160009091909190915055826000018054905083600101600084815260200190815260200160002081905550600190506117b9565b600090505b92915050565b600033905090565b600081600001805490509050919050565b600080836001016000848152602001908152602001600020541415905092915050565b60608160000180548060200260200160405190810160405280929190818152602001828054801561184b57602002820191906000526020600020905b815481526020019060010190808311611837575b50505050509050919050565b6000808360010160008481526020019081526020016000205490506000811461195f5760006001826118899190612267565b90506000600186600001805490506118a19190612267565b90508181146119105760008660000182815481106118c2576118c1612209565b5b90600052602060002001549050808760000184815481106118e6576118e5612209565b5b90600052602060002001819055508387600101600083815260200190815260200160002081905550505b856000018054806119245761192361267e565b5b600190038181906000526020600020016000905590558560010160008681526020019081526020016000206000905560019350505050611965565b60009150505b92915050565b600073ffffffffffffffffffffffffffffffffffffffff82169050919050565b6000819050919050565b60006119b06119ab6119a68461196b565b61198b565b61196b565b9050919050565b60006119c282611995565b9050919050565b60006119d4826119b7565b9050919050565b6119e4816119c9565b82525050565b60006020820190506119ff60008301846119db565b92915050565b6000604051905090565b600080fd5b600080fd5b6000611a248261196b565b9050919050565b611a3481611a19565b8114611a3f57600080fd5b50565b600081359050611a5181611a2b565b92915050565b6000819050919050565b611a6a81611a57565b8114611a7557600080fd5b50565b600081359050611a8781611a61565b92915050565b600080fd5b600080fd5b6000601f19601f8301169050919050565b7f4e487b7100000000000000000000000000000000000000000000000000000000600052604160045260246000fd5b611ae082611a97565b810181811067ffffffffffffffff82111715611aff57611afe611aa8565b5b80604052505050565b6000611b12611a05565b9050611b1e8282611ad7565b919050565b600067ffffffffffffffff821115611b3e57611b3d611aa8565b5b611b4782611a97565b9050602081019050919050565b82818337600083830152505050565b6000611b76611b7184611b23565b611b08565b905082815260208101848484011115611b9257611b91611a92565b5b611b9d848285611b54565b509392505050565b600082601f830112611bba57611bb9611a8d565b5b8135611bca848260208601611b63565b91505092915050565b60008060008060808587031215611bed57611bec611a0f565b5b6000611bfb87828801611a42565b9450506020611c0c87828801611a42565b9350506040611c1d87828801611a78565b925050606085013567ffffffffffffffff811115611c3e57611c3d611a14565b5b611c4a87828801611ba5565b91505092959194509250565b60007fffffffff0000000000000000000000000000000000000000000000000000000082169050919050565b611c8b81611c56565b82525050565b6000602082019050611ca66000830184611c82565b92915050565b600080fd5b600080fd5b60008083601f840112611ccc57611ccb611a8d565b5b8235905067ffffffffffffffff811115611ce957611ce8611cac565b5b602083019150836020820283011115611d0557611d04611cb1565b5b9250929050565b60038110611d1957600080fd5b50565b600081359050611d2b81611d0c565b92915050565b600080600060408486031215611d4a57611d49611a0f565b5b600084013567ffffffffffffffff811115611d6857611d67611a14565b5b611d7486828701611cb6565b93509350506020611d8786828701611d1c565b9150509250925092565b600060208284031215611da757611da6611a0f565b5b6000611db584828501611a42565b91505092915050565b60008115159050919050565b611dd381611dbe565b82525050565b6000602082019050611dee6000830184611dca565b92915050565b611dfd81611dbe565b8114611e0857600080fd5b50565b600081359050611e1a81611df4565b92915050565b60008060408385031215611e3757611e36611a0f565b5b6000611e4585828601611a42565b9250506020611e5685828601611e0b565b9150509250929050565b600080600060408486031215611e7957611e78611a0f565b5b6000611e8786828701611d1c565b935050602084013567ffffffffffffffff811115611ea857611ea7611a14565b5b611eb486828701611cb6565b92509250509250925092565b600081519050919050565b600082825260208201905092915050565b6000819050602082019050919050565b611ef581611a57565b82525050565b6000611f078383611eec565b60208301905092915050565b6000602082019050919050565b6000611f2b82611ec0565b611f358185611ecb565b9350611f4083611edc565b8060005b83811015611f71578151611f588882611efb565b9750611f6383611f13565b925050600181019050611f44565b5085935050505092915050565b60006020820190508181036000830152611f988184611f20565b905092915050565b60008060408385031215611fb757611fb6611a0f565b5b6000611fc585828601611a42565b9250506020611fd685828601611d1c565b9150509250929050565b611fe981611a57565b82525050565b60006020820190506120046000830184611fe0565b92915050565b6000602082840312156120205761201f611a0f565b5b600061202e84828501611a78565b91505092915050565b6000806000606084860312156120505761204f611a0f565b5b600061205e86828701611a42565b935050602061206f86828701611d1c565b925050604061208086828701611a78565b9150509250925092565b61209381611a19565b82525050565b60006020820190506120ae600083018461208a565b92915050565b600080604083850312156120cb576120ca611a0f565b5b60006120d985828601611d1c565b92505060206120ea85828601611a78565b9150509250929050565b6000806040838503121561210b5761210a611a0f565b5b600061211985828601611a78565b925050602061212a85828601611d1c565b9150509250929050565b6000604082019050612149600083018561208a565b6121566020830184611fe0565b9392505050565b7f4e487b7100000000000000000000000000000000000000000000000000000000600052602160045260246000fd5b600082825260208201905092915050565b7f5354414b45523a20616c7265616479207374616b656400000000000000000000600082015250565b60006121d360168361218c565b91506121de8261219d565b602082019050919050565b60006020820190508181036000830152612202816121c6565b9050919050565b7f4e487b7100000000000000000000000000000000000000000000000000000000600052603260045260246000fd5b7f4e487b7100000000000000000000000000000000000000000000000000000000600052601160045260246000fd5b600061227282611a57565b915061227d83611a57565b9250828210156122905761228f612238565b5b828203905092915050565b7f6e6f74206f776e65720000000000000000000000000000000000000000000000600082015250565b60006122d160098361218c565b91506122dc8261229b565b602082019050919050565b60006020820190508181036000830152612300816122c4565b9050919050565b7f5354414b45523a207374616b656420746f6b656e206e6f7420666f756e640000600082015250565b600061233d601e8361218c565b915061234882612307565b602082019050919050565b6000602082019050818103600083015261236c81612330565b9050919050565b7f5354414b45523a20746f6b656e20616c7265616479207374616b656400000000600082015250565b60006123a9601c8361218c565b91506123b482612373565b602082019050919050565b600060208201905081810360008301526123d88161239c565b9050919050565b7f44454c4547415445443a2063616c6c6572206973206e6f742064656c6567617460008201527f6564000000000000000000000000000000000000000000000000000000000000602082015250565b600061243b60228361218c565b9150612446826123df565b604082019050919050565b6000602082019050818103600083015261246a8161242e565b9050919050565b7f4f776e61626c653a206e6577206f776e657220697320746865207a65726f206160008201527f6464726573730000000000000000000000000000000000000000000000000000602082015250565b60006124cd60268361218c565b91506124d882612471565b604082019050919050565b600060208201905081810360008301526124fc816124c0565b9050919050565b7f77726f6e6720746f6b656e207265636569766564000000000000000000000000600082015250565b600061253960148361218c565b915061254482612503565b602082019050919050565b600060208201905081810360008301526125688161252c565b9050919050565b7f4f776e61626c653a2063616c6c6572206973206e6f7420746865206f776e6572600082015250565b60006125a560208361218c565b91506125b08261256f565b602082019050919050565b600060208201905081810360008301526125d481612598565b9050919050565b7f696e76616c696420636f6e747261637420747970650000000000000000000000600082015250565b600061261160158361218c565b915061261c826125db565b602082019050919050565b6000602082019050818103600083015261264081612604565b9050919050565b600060608201905061265c600083018661208a565b612669602083018561208a565b6126766040830184611fe0565b949350505050565b7f4e487b7100000000000000000000000000000000000000000000000000000000600052603160045260246000fdfea2646970667358221220718f3284fcce9efe41ee6bf4ac8aa8692fd0ad00d51b69e7569dcb02ee0ce68b64736f6c634300080e0033",
  "immutableReferences": {
    "11153": [
      {
        "length": 32,
        "start": 2735
      },
      {
        "length": 32,
        "start": 4701
      }
    ],
    "11156": [
      {
        "length": 32,
        "start": 1077
      },
      {
        "length": 32,
        "start": 4793
      }
    ],
    "11159": [
      {
        "length": 32,
        "start": 1863
      },
      {
        "length": 32,
        "start": 4885
      }
    ]
  },
  "source": "// SPDX-License-Identifier: MIT OR Apache-2.0\npragma solidity ^0.8.14;\n\nimport \"@openzeppelin/contracts/token/ERC721/IERC721Receiver.sol\";\nimport \"@openzeppelin/contracts/utils/structs/EnumerableSet.sol\";\nimport \"@openzeppelin/contracts/token/ERC721/IERC721.sol\";\nimport { Delegated } from \"./Delegated.sol\";\n\ncontract PAStaker is IERC721Receiver, Delegated {\n    using EnumerableSet for EnumerableSet.UintSet;\n\n    IERC721 public immutable GENESIS; // 0x75E95ba5997Eb235F40eCF8347cDb11F18ff640B\n    IERC721 public immutable COMPONENT_1; // 0x5501024dDb740266Fa0d69d19809EC86dB5E3f8b\n    IERC721 public immutable PSILOCYBIN; // 0x11ca9693156929EE2e7E1470C5E1A55b413e9007\n    IERC721[3] public TOKEN_CONTRACTS;\n\n    constructor(address _genesis, address _component1, address _psilocybin) {\n        GENESIS = IERC721(_genesis);\n        COMPONENT_1 = IERC721(_component1);\n        PSILOCYBIN = IERC721(_psilocybin);\n\n        TOKEN_CONTRACTS = [ GENESIS, COMPONENT_1, PSILOCYBIN ];\n    }\n\n    enum TokenType { Genesis, Component1, Psilocybin }\n    struct TokenInfo { address owner; uint256 timeStaked; }\n    mapping(TokenType => mapping(uint256 => TokenInfo)) public tokenInfo;\n    mapping(address => mapping(TokenType => EnumerableSet.UintSet)) stakedTokens;\n\n    /*\n     * VIEW FUNCTIONS\n     */\n    function timeSinceStaked(TokenType _tokenType, uint256 _id) public view returns (uint256) {\n        uint timeStaked = tokenInfo[_tokenType][_id].timeStaked;\n        return timeStaked == 0 ? 0 : block.timestamp - timeStaked;\n    }\n\n    function batchTimeSinceStaked(TokenType _tokenType, uint256[] calldata _ids) external view returns (uint256[] memory) {\n        uint256 _length = _ids.length;\n        uint256[] memory timeStamps = new uint256[](_length);\n        for(uint i = 0; i < _length;) {\n            timeStamps[i] = timeSinceStaked(_tokenType, _ids[i]);\n            unchecked { i++; }\n        }\n        return timeStamps;\n    }\n\n    function isStaked(address _owner, TokenType _tokenType, uint256 _id) external view returns (bool) {\n        return stakedTokens[_owner][_tokenType].contains(_id);\n    }\n\n    function stakedBalance(address _owner, TokenType _tokenType) external view returns (uint256) {\n        return stakedTokens[_owner][_tokenType].length();\n    }\n\n    function getStakedTokens(address _owner, TokenType _tokenType) external view returns (uint256[] memory) {\n        return stakedTokens[_owner][_tokenType].values();\n    }\n\n    /*\n     * USER FUNCTIONS\n     */\n     /** @dev batchStake requires setApprovalForAll before using */\n    function batchStake(uint256[] calldata _ids, TokenType _tokenType) external {\n        for(uint i = 0; i < _ids.length; ) {\n            tokenInfo[_tokenType][_ids[i]] = TokenInfo(msg.sender, block.timestamp);\n            require(stakedTokens[msg.sender][_tokenType].add(_ids[i]), \"STAKER: token already staked\");\n            _contractTransfer(msg.sender, address(this), _ids[i], uint256(_tokenType));\n            unchecked { i++; }\n        }\n    }\n\n    function unstake(uint256 _id, TokenType _tokenType) public {\n        address _owner = tokenInfo[_tokenType][_id].owner;\n        require(msg.sender == _owner, \"not owner\");\n\n        delete tokenInfo[_tokenType][_id];\n        require(stakedTokens[msg.sender][_tokenType].remove(_id), \"STAKER: staked token not found\");\n        _contractSafeTransfer(address(this), _owner, _id, uint(_tokenType));\n    }\n\n    function batchUnstake(uint256[] calldata _ids, TokenType _tokenType) external {\n        for(uint i = 0; i < _ids.length; ) {\n            unstake(_ids[i], _tokenType);\n            unchecked { i++; }\n        }\n    }\n\n    /*\n     * ONLY DELEGATES\n     */\n     /** @dev this function can only be used by specific addresses to unstake tokens and return them back to their owner */\n    function delegatedUnstake(uint256 _id, TokenType _tokenType) public onlyDelegates {\n        address _owner = tokenInfo[_tokenType][_id].owner;\n\n        delete tokenInfo[_tokenType][_id];\n        require(stakedTokens[_owner][_tokenType].remove(_id), \"STAKER: staked token not found\");\n        _contractSafeTransfer(address(this), _owner, _id, uint(_tokenType));\n    }\n\n    function delegatedBatchUnstake(uint256[] calldata _ids, TokenType _tokenType) external {\n        for(uint i = 0; i < _ids.length; ) {\n            delegatedUnstake(_ids[i], _tokenType);\n            unchecked { i++; }\n        }\n    }\n\n    /*\n     * PRIVATE FUNCTIONS\n     */\n     function _contractTransfer(address _from, address _to, uint256 _id, uint256 _contractIndex) private {\n        require(_contractIndex < 3, \"invalid contract type\");\n        TOKEN_CONTRACTS[_contractIndex].transferFrom(_from, _to, _id);\n    }\n\n     function _contractSafeTransfer(address _from, address _to, uint256 _id, uint256 _contractIndex) private {\n        require(_contractIndex < 3, \"invalid contract type\");\n        TOKEN_CONTRACTS[_contractIndex].safeTransferFrom(_from, _to, _id);\n    }\n\n    function _getContractType(address _contract) private view returns (TokenType) {\n        if (_contract == address(GENESIS)) return TokenType.Genesis;\n        if (_contract == address(COMPONENT_1)) return TokenType.Component1;\n        if (_contract == address(PSILOCYBIN)) return TokenType.Psilocybin;\n        revert(\"wrong token received\");\n    }\n\n    /*\n     * OVERRIDES\n     */\n    function onERC721Received(\n        address, // unused\n        address _from,\n        uint256 _id,\n        bytes memory // unused\n    ) public override returns (bytes4) {\n        TokenType _contractType = _getContractType(msg.sender);\n        tokenInfo[_contractType][_id] = TokenInfo(_from, block.timestamp);\n        require(stakedTokens[_from][_contractType].add(_id), \"STAKER: already staked\");\n        return this.onERC721Received.selector;\n    }\n}\n\n/***************************************\n * @author:                          *\n * @team:   Asteria                     *\n ****************************************/",
  "sourcePath": "D:\\Code\\pa-contract-audit-main\\contracts\\PAStaker.sol",
  "compiler": {
    "name": "solc",
    "version": "0.8.14+commit.80d49f37.Emscripten.clang"
  },
  "schemaVersion": "3.4.5",
  "updatedAt": "2022-07-08T18:44:56.448Z",
  "devdoc": {
    "kind": "dev",
    "methods": {
      "batchStake(uint256[],uint8)": {
        "details": "batchStake requires setApprovalForAll before using "
      },
      "delegatedUnstake(uint256,uint8)": {
        "details": "this function can only be used by specific addresses to unstake tokens and return them back to their owner "
      },
      "owner()": {
        "details": "Returns the address of the current owner."
      },
      "renounceOwnership()": {
        "details": "Leaves the contract without owner. It will not be possible to call `onlyOwner` functions anymore. Can only be called by the current owner. NOTE: Renouncing ownership will leave the contract without an owner, thereby removing any functionality that is only available to the owner."
      },
      "transferOwnership(address)": {
        "details": "Transfers ownership of the contract to a new account (`newOwner`). Can only be called by the current owner."
      }
    },
    "version": 1
  },
  "userdoc": {
    "kind": "user",
    "methods": {},
    "version": 1
  }
}