{
  "contractName": "PSYToken",
  "abi": [
    {
      "inputs": [
        {
          "internalType": "address",
          "name": "_staker",
          "type": "address"
        }
      ],
      "stateMutability": "nonpayable",
      "type": "constructor"
    },
    {
      "anonymous": false,
      "inputs": [
        {
          "indexed": true,
          "internalType": "address",
          "name": "owner",
          "type": "address"
        },
        {
          "indexed": true,
          "internalType": "address",
          "name": "spender",
          "type": "address"
        },
        {
          "indexed": false,
          "internalType": "uint256",
          "name": "value",
          "type": "uint256"
        }
      ],
      "name": "Approval",
      "type": "event"
    },
    {
      "anonymous": false,
      "inputs": [
        {
          "indexed": true,
          "internalType": "address",
          "name": "from",
          "type": "address"
        },
        {
          "indexed": true,
          "internalType": "address",
          "name": "to",
          "type": "address"
        },
        {
          "indexed": false,
          "internalType": "uint256",
          "name": "value",
          "type": "uint256"
        }
      ],
      "name": "Transfer",
      "type": "event"
    },
    {
      "inputs": [],
      "name": "STAKING_CONTRACT",
      "outputs": [
        {
          "internalType": "contract IStake",
          "name": "",
          "type": "address"
        }
      ],
      "stateMutability": "view",
      "type": "function"
    },
    {
      "inputs": [
        {
          "internalType": "address",
          "name": "owner",
          "type": "address"
        },
        {
          "internalType": "address",
          "name": "spender",
          "type": "address"
        }
      ],
      "name": "allowance",
      "outputs": [
        {
          "internalType": "uint256",
          "name": "",
          "type": "uint256"
        }
      ],
      "stateMutability": "view",
      "type": "function"
    },
    {
      "inputs": [
        {
          "internalType": "address",
          "name": "spender",
          "type": "address"
        },
        {
          "internalType": "uint256",
          "name": "amount",
          "type": "uint256"
        }
      ],
      "name": "approve",
      "outputs": [
        {
          "internalType": "bool",
          "name": "",
          "type": "bool"
        }
      ],
      "stateMutability": "nonpayable",
      "type": "function"
    },
    {
      "inputs": [
        {
          "internalType": "address",
          "name": "account",
          "type": "address"
        }
      ],
      "name": "balanceOf",
      "outputs": [
        {
          "internalType": "uint256",
          "name": "",
          "type": "uint256"
        }
      ],
      "stateMutability": "view",
      "type": "function"
    },
    {
      "inputs": [],
      "name": "decimals",
      "outputs": [
        {
          "internalType": "uint8",
          "name": "",
          "type": "uint8"
        }
      ],
      "stateMutability": "view",
      "type": "function"
    },
    {
      "inputs": [
        {
          "internalType": "address",
          "name": "spender",
          "type": "address"
        },
        {
          "internalType": "uint256",
          "name": "subtractedValue",
          "type": "uint256"
        }
      ],
      "name": "decreaseAllowance",
      "outputs": [
        {
          "internalType": "bool",
          "name": "",
          "type": "bool"
        }
      ],
      "stateMutability": "nonpayable",
      "type": "function"
    },
    {
      "inputs": [
        {
          "internalType": "address",
          "name": "spender",
          "type": "address"
        },
        {
          "internalType": "uint256",
          "name": "addedValue",
          "type": "uint256"
        }
      ],
      "name": "increaseAllowance",
      "outputs": [
        {
          "internalType": "bool",
          "name": "",
          "type": "bool"
        }
      ],
      "stateMutability": "nonpayable",
      "type": "function"
    },
    {
      "inputs": [],
      "name": "name",
      "outputs": [
        {
          "internalType": "string",
          "name": "",
          "type": "string"
        }
      ],
      "stateMutability": "view",
      "type": "function"
    },
    {
      "inputs": [],
      "name": "symbol",
      "outputs": [
        {
          "internalType": "string",
          "name": "",
          "type": "string"
        }
      ],
      "stateMutability": "view",
      "type": "function"
    },
    {
      "inputs": [],
      "name": "totalSupply",
      "outputs": [
        {
          "internalType": "uint256",
          "name": "",
          "type": "uint256"
        }
      ],
      "stateMutability": "view",
      "type": "function"
    },
    {
      "inputs": [
        {
          "internalType": "address",
          "name": "to",
          "type": "address"
        },
        {
          "internalType": "uint256",
          "name": "amount",
          "type": "uint256"
        }
      ],
      "name": "transfer",
      "outputs": [
        {
          "internalType": "bool",
          "name": "",
          "type": "bool"
        }
      ],
      "stateMutability": "nonpayable",
      "type": "function"
    },
    {
      "inputs": [
        {
          "internalType": "address",
          "name": "from",
          "type": "address"
        },
        {
          "internalType": "address",
          "name": "to",
          "type": "address"
        },
        {
          "internalType": "uint256",
          "name": "amount",
          "type": "uint256"
        }
      ],
      "name": "transferFrom",
      "outputs": [
        {
          "internalType": "bool",
          "name": "",
          "type": "bool"
        }
      ],
      "stateMutability": "nonpayable",
      "type": "function"
    },
    {
      "inputs": [
        {
          "internalType": "uint256",
          "name": "_id",
          "type": "uint256"
        },
        {
          "internalType": "enum IStake.TokenTypes",
          "name": "_tokenType",
          "type": "uint8"
        }
      ],
      "name": "tokenUnstake",
      "outputs": [],
      "stateMutability": "nonpayable",
      "type": "function"
    },
    {
      "inputs": [
        {
          "internalType": "uint256[]",
          "name": "_ids",
          "type": "uint256[]"
        },
        {
          "internalType": "enum IStake.TokenTypes",
          "name": "_tokenType",
          "type": "uint8"
        }
      ],
      "name": "tokenBatchUnstake",
      "outputs": [],
      "stateMutability": "nonpayable",
      "type": "function"
    }
  ],
  "bytecode": "0x60a06040523480156200001157600080fd5b5060405162001d0c38038062001d0c83398181016040528101906200003791906200022c565b6040518060400160405280601c81526020017f50737963686564656c69637320416e6f6e796d6f757320546f6b656e000000008152506040518060400160405280600381526020017f50535900000000000000000000000000000000000000000000000000000000008152508160039080519060200190620000bb92919062000112565b508060049080519060200190620000d492919062000112565b5050508073ffffffffffffffffffffffffffffffffffffffff1660808173ffffffffffffffffffffffffffffffffffffffff168152505050620002c2565b82805462000120906200028d565b90600052602060002090601f01602090048101928262000144576000855562000190565b82601f106200015f57805160ff191683800117855562000190565b8280016001018555821562000190579182015b828111156200018f57825182559160200191906001019062000172565b5b5090506200019f9190620001a3565b5090565b5b80821115620001be576000816000905550600101620001a4565b5090565b600080fd5b600073ffffffffffffffffffffffffffffffffffffffff82169050919050565b6000620001f482620001c7565b9050919050565b6200020681620001e7565b81146200021257600080fd5b50565b6000815190506200022681620001fb565b92915050565b600060208284031215620002455762000244620001c2565b5b6000620002558482850162000215565b91505092915050565b7f4e487b7100000000000000000000000000000000000000000000000000000000600052602260045260246000fd5b60006002820490506001821680620002a657607f821691505b602082108103620002bc57620002bb6200025e565b5b50919050565b608051611a19620002f36000396000818161043f015281816105500152818161062a01526107ea0152611a196000f3fe608060405234801561001057600080fd5b50600436106100ea5760003560e01c806370a082311161008c578063a457c2d711610066578063a457c2d71461025f578063a9059cbb1461028f578063da19ddfb146102bf578063dd62ed3e146102dd576100ea565b806370a08231146101f557806384e08a931461022557806395d89b4114610241576100ea565b806323b872dd116100c857806323b872dd1461015b578063313ce5671461018b57806339509351146101a957806345a17490146101d9576100ea565b806306fdde03146100ef578063095ea7b31461010d57806318160ddd1461013d575b600080fd5b6100f761030d565b6040516101049190610e12565b60405180910390f35b61012760048036038101906101229190610edc565b61039f565b6040516101349190610f37565b60405180910390f35b6101456103c2565b6040516101529190610f61565b60405180910390f35b61017560048036038101906101709190610f7c565b6103cc565b6040516101829190610f37565b60405180910390f35b6101936103fb565b6040516101a09190610feb565b60405180910390f35b6101c360048036038101906101be9190610edc565b610404565b6040516101d09190610f37565b60405180910390f35b6101f360048036038101906101ee919061102b565b61043b565b005b61020f600480360381019061020a919061106b565b6105e0565b60405161021c9190610f61565b60405180910390f35b61023f600480360381019061023a91906110fd565b610628565b005b6102496106bc565b6040516102569190610e12565b60405180910390f35b61027960048036038101906102749190610edc565b61074e565b6040516102869190610f37565b60405180910390f35b6102a960048036038101906102a49190610edc565b6107c5565b6040516102b69190610f37565b60405180910390f35b6102c76107e8565b6040516102d491906111bc565b60405180910390f35b6102f760048036038101906102f291906111d7565b61080c565b6040516103049190610f61565b60405180910390f35b60606003805461031c90611246565b80601f016020809104026020016040519081016040528092919081815260200182805461034890611246565b80156103955780601f1061036a57610100808354040283529160200191610395565b820191906000526020600020905b81548152906001019060200180831161037857829003601f168201915b5050505050905090565b6000806103aa610893565b90506103b781858561089b565b600191505092915050565b6000600254905090565b6000806103d7610893565b90506103e4858285610a64565b6103ef858585610af0565b60019150509392505050565b60006012905090565b60008061040f610893565b9050610430818585610421858961080c565b61042b91906112a6565b61089b565b600191505092915050565b60007f000000000000000000000000000000000000000000000000000000000000000073ffffffffffffffffffffffffffffffffffffffff1663f376d0de83856040518363ffffffff1660e01b8152600401610498929190611373565b60408051808303816000875af11580156104b6573d6000803e3d6000fd5b505050506040513d601f19601f820116820180604052508101906104da9190611496565b6000015190508073ffffffffffffffffffffffffffffffffffffffff163373ffffffffffffffffffffffffffffffffffffffff161461054e576040517f08c379a00000000000000000000000000000000000000000000000000000000081526004016105459061150f565b60405180910390fd5b7f000000000000000000000000000000000000000000000000000000000000000073ffffffffffffffffffffffffffffffffffffffff1663ef216af384846040518363ffffffff1660e01b81526004016105a992919061152f565b600060405180830381600087803b1580156105c357600080fd5b505af11580156105d7573d6000803e3d6000fd5b50505050505050565b60008060008373ffffffffffffffffffffffffffffffffffffffff1673ffffffffffffffffffffffffffffffffffffffff168152602001908152602001600020549050919050565b7f000000000000000000000000000000000000000000000000000000000000000073ffffffffffffffffffffffffffffffffffffffff16634432c4e48484846040518463ffffffff1660e01b8152600401610685939291906115d9565b600060405180830381600087803b15801561069f57600080fd5b505af11580156106b3573d6000803e3d6000fd5b50505050505050565b6060600480546106cb90611246565b80601f01602080910402602001604051908101604052809291908181526020018280546106f790611246565b80156107445780601f1061071957610100808354040283529160200191610744565b820191906000526020600020905b81548152906001019060200180831161072757829003601f168201915b5050505050905090565b600080610759610893565b90506000610767828661080c565b9050838110156107ac576040517f08c379a00000000000000000000000000000000000000000000000000000000081526004016107a39061167d565b60405180910390fd5b6107b9828686840361089b565b60019250505092915050565b6000806107d0610893565b90506107dd818585610af0565b600191505092915050565b7f000000000000000000000000000000000000000000000000000000000000000081565b6000600160008473ffffffffffffffffffffffffffffffffffffffff1673ffffffffffffffffffffffffffffffffffffffff16815260200190815260200160002060008373ffffffffffffffffffffffffffffffffffffffff1673ffffffffffffffffffffffffffffffffffffffff16815260200190815260200160002054905092915050565b600033905090565b600073ffffffffffffffffffffffffffffffffffffffff168373ffffffffffffffffffffffffffffffffffffffff160361090a576040517f08c379a00000000000000000000000000000000000000000000000000000000081526004016109019061170f565b60405180910390fd5b600073ffffffffffffffffffffffffffffffffffffffff168273ffffffffffffffffffffffffffffffffffffffff1603610979576040517f08c379a0000000000000000000000000000000000000000000000000000000008152600401610970906117a1565b60405180910390fd5b80600160008573ffffffffffffffffffffffffffffffffffffffff1673ffffffffffffffffffffffffffffffffffffffff16815260200190815260200160002060008473ffffffffffffffffffffffffffffffffffffffff1673ffffffffffffffffffffffffffffffffffffffff168152602001908152602001600020819055508173ffffffffffffffffffffffffffffffffffffffff168373ffffffffffffffffffffffffffffffffffffffff167f8c5be1e5ebec7d5bd14f71427d1e84f3dd0314c0f7b2291e5b200ac8c7c3b92583604051610a579190610f61565b60405180910390a3505050565b6000610a70848461080c565b90507fffffffffffffffffffffffffffffffffffffffffffffffffffffffffffffffff8114610aea5781811015610adc576040517f08c379a0000000000000000000000000000000000000000000000000000000008152600401610ad39061180d565b60405180910390fd5b610ae9848484840361089b565b5b50505050565b600073ffffffffffffffffffffffffffffffffffffffff168373ffffffffffffffffffffffffffffffffffffffff1603610b5f576040517f08c379a0000000000000000000000000000000000000000000000000000000008152600401610b569061189f565b60405180910390fd5b600073ffffffffffffffffffffffffffffffffffffffff168273ffffffffffffffffffffffffffffffffffffffff1603610bce576040517f08c379a0000000000000000000000000000000000000000000000000000000008152600401610bc590611931565b60405180910390fd5b610bd9838383610d6f565b60008060008573ffffffffffffffffffffffffffffffffffffffff1673ffffffffffffffffffffffffffffffffffffffff16815260200190815260200160002054905081811015610c5f576040517f08c379a0000000000000000000000000000000000000000000000000000000008152600401610c56906119c3565b60405180910390fd5b8181036000808673ffffffffffffffffffffffffffffffffffffffff1673ffffffffffffffffffffffffffffffffffffffff16815260200190815260200160002081905550816000808573ffffffffffffffffffffffffffffffffffffffff1673ffffffffffffffffffffffffffffffffffffffff1681526020019081526020016000206000828254610cf291906112a6565b925050819055508273ffffffffffffffffffffffffffffffffffffffff168473ffffffffffffffffffffffffffffffffffffffff167fddf252ad1be2c89b69c2b068fc378daa952ba7f163c4a11628f55a4df523b3ef84604051610d569190610f61565b60405180910390a3610d69848484610d74565b50505050565b505050565b505050565b600081519050919050565b600082825260208201905092915050565b60005b83811015610db3578082015181840152602081019050610d98565b83811115610dc2576000848401525b50505050565b6000601f19601f8301169050919050565b6000610de482610d79565b610dee8185610d84565b9350610dfe818560208601610d95565b610e0781610dc8565b840191505092915050565b60006020820190508181036000830152610e2c8184610dd9565b905092915050565b6000604051905090565b600080fd5b600080fd5b600073ffffffffffffffffffffffffffffffffffffffff82169050919050565b6000610e7382610e48565b9050919050565b610e8381610e68565b8114610e8e57600080fd5b50565b600081359050610ea081610e7a565b92915050565b6000819050919050565b610eb981610ea6565b8114610ec457600080fd5b50565b600081359050610ed681610eb0565b92915050565b60008060408385031215610ef357610ef2610e3e565b5b6000610f0185828601610e91565b9250506020610f1285828601610ec7565b9150509250929050565b60008115159050919050565b610f3181610f1c565b82525050565b6000602082019050610f4c6000830184610f28565b92915050565b610f5b81610ea6565b82525050565b6000602082019050610f766000830184610f52565b92915050565b600080600060608486031215610f9557610f94610e3e565b5b6000610fa386828701610e91565b9350506020610fb486828701610e91565b9250506040610fc586828701610ec7565b9150509250925092565b600060ff82169050919050565b610fe581610fcf565b82525050565b60006020820190506110006000830184610fdc565b92915050565b6003811061101357600080fd5b50565b60008135905061102581611006565b92915050565b6000806040838503121561104257611041610e3e565b5b600061105085828601610ec7565b925050602061106185828601611016565b9150509250929050565b60006020828403121561108157611080610e3e565b5b600061108f84828501610e91565b91505092915050565b600080fd5b600080fd5b600080fd5b60008083601f8401126110bd576110bc611098565b5b8235905067ffffffffffffffff8111156110da576110d961109d565b5b6020830191508360208202830111156110f6576110f56110a2565b5b9250929050565b60008060006040848603121561111657611115610e3e565b5b600084013567ffffffffffffffff81111561113457611133610e43565b5b611140868287016110a7565b9350935050602061115386828701611016565b9150509250925092565b6000819050919050565b600061118261117d61117884610e48565b61115d565b610e48565b9050919050565b600061119482611167565b9050919050565b60006111a682611189565b9050919050565b6111b68161119b565b82525050565b60006020820190506111d160008301846111ad565b92915050565b600080604083850312156111ee576111ed610e3e565b5b60006111fc85828601610e91565b925050602061120d85828601610e91565b9150509250929050565b7f4e487b7100000000000000000000000000000000000000000000000000000000600052602260045260246000fd5b6000600282049050600182168061125e57607f821691505b60208210810361127157611270611217565b5b50919050565b7f4e487b7100000000000000000000000000000000000000000000000000000000600052601160045260246000fd5b60006112b182610ea6565b91506112bc83610ea6565b9250827fffffffffffffffffffffffffffffffffffffffffffffffffffffffffffffffff038211156112f1576112f0611277565b5b828201905092915050565b7f4e487b7100000000000000000000000000000000000000000000000000000000600052602160045260246000fd5b6003811061133c5761133b6112fc565b5b50565b600081905061134d8261132b565b919050565b600061135d8261133f565b9050919050565b61136d81611352565b82525050565b60006040820190506113886000830185611364565b6113956020830184610f52565b9392505050565b600080fd5b7f4e487b7100000000000000000000000000000000000000000000000000000000600052604160045260246000fd5b6113d982610dc8565b810181811067ffffffffffffffff821117156113f8576113f76113a1565b5b80604052505050565b600061140b610e34565b905061141782826113d0565b919050565b60008151905061142b81610e7a565b92915050565b60008151905061144081610eb0565b92915050565b60006040828403121561145c5761145b61139c565b5b6114666040611401565b905060006114768482850161141c565b600083015250602061148a84828501611431565b60208301525092915050565b6000604082840312156114ac576114ab610e3e565b5b60006114ba84828501611446565b91505092915050565b7f544f4b454e3a206e6f74206f776e657200000000000000000000000000000000600082015250565b60006114f9601083610d84565b9150611504826114c3565b602082019050919050565b60006020820190508181036000830152611528816114ec565b9050919050565b60006040820190506115446000830185610f52565b6115516020830184611364565b9392505050565b600082825260208201905092915050565b600080fd5b82818337600083830152505050565b60006115898385611558565b93507f07ffffffffffffffffffffffffffffffffffffffffffffffffffffffffffffff8311156115bc576115bb611569565b5b6020830292506115cd83858461156e565b82840190509392505050565b600060408201905081810360008301526115f481858761157d565b90506116036020830184611364565b949350505050565b7f45524332303a2064656372656173656420616c6c6f77616e63652062656c6f7760008201527f207a65726f000000000000000000000000000000000000000000000000000000602082015250565b6000611667602583610d84565b91506116728261160b565b604082019050919050565b600060208201905081810360008301526116968161165a565b9050919050565b7f45524332303a20617070726f76652066726f6d20746865207a65726f2061646460008201527f7265737300000000000000000000000000000000000000000000000000000000602082015250565b60006116f9602483610d84565b91506117048261169d565b604082019050919050565b60006020820190508181036000830152611728816116ec565b9050919050565b7f45524332303a20617070726f766520746f20746865207a65726f20616464726560008201527f7373000000000000000000000000000000000000000000000000000000000000602082015250565b600061178b602283610d84565b91506117968261172f565b604082019050919050565b600060208201905081810360008301526117ba8161177e565b9050919050565b7f45524332303a20696e73756666696369656e7420616c6c6f77616e6365000000600082015250565b60006117f7601d83610d84565b9150611802826117c1565b602082019050919050565b60006020820190508181036000830152611826816117ea565b9050919050565b7f45524332303a207472616e736665722066726f6d20746865207a65726f20616460008201527f6472657373000000000000000000000000000000000000000000000000000000602082015250565b6000611889602583610d84565b91506118948261182d565b604082019050919050565b600060208201905081810360008301526118b88161187c565b9050919050565b7f45524332303a207472616e7366657220746f20746865207a65726f206164647260008201527f6573730000000000000000000000000000000000000000000000000000000000602082015250565b600061191b602383610d84565b9150611926826118bf565b604082019050919050565b6000602082019050818103600083015261194a8161190e565b9050919050565b7f45524332303a207472616e7366657220616d6f756e742065786365656473206260008201527f616c616e63650000000000000000000000000000000000000000000000000000602082015250565b60006119ad602683610d84565b91506119b882611951565b604082019050919050565b600060208201905081810360008301526119dc816119a0565b905091905056fea2646970667358221220ed0b44da2ffd2f6a51770d30a8aa43ebd06277502de28aceebf3902016584e9264736f6c634300080e0033",
  "immutableReferences": {
    "11815": [
      {
        "length": 32,
        "start": 1087
      },
      {
        "length": 32,
        "start": 1360
      },
      {
        "length": 32,
        "start": 1578
      },
      {
        "length": 32,
        "start": 2026
      }
    ]
  },
  "source": "// SPDX-License-Identifier: MIT OR Apache-2.0\npragma solidity ^0.8.14;\n\nimport \"@openzeppelin/contracts/token/ERC20/ERC20.sol\";\nimport \"hardhat/console.sol\";\n\ninterface IStake {\n    struct TokenInfo { address owner; uint256 timeStaked; }\n    enum TokenTypes { Genesis, Component1, Psilocybin }\n    function delegatedUnstake(uint256 _id, TokenTypes _tokenType) external;\n    function delegatedBatchUnstake(uint256[] calldata _ids, TokenTypes _tokenType) external;\n    function tokenInfo(TokenTypes, uint256) external returns (TokenInfo memory);\n}\n\ncontract PSYToken is ERC20(\"Psychedelics Anonymous Token\", \"PSY\") {\n    IStake public immutable STAKING_CONTRACT;\n\n    enum TokenTypes { Genesis, Component1, Psilocybin }\n\n    constructor(address _staker) {\n        STAKING_CONTRACT = IStake(_staker);\n    }\n\n    function tokenUnstake(uint256 _id, IStake.TokenTypes _tokenType) external {\n        address _owner = STAKING_CONTRACT.tokenInfo(_tokenType, _id).owner;\n        require(msg.sender == _owner, \"TOKEN: not owner\");\n        STAKING_CONTRACT.delegatedUnstake(_id, _tokenType);\n    }\n\n    function tokenBatchUnstake(uint256[] calldata _ids, IStake.TokenTypes _tokenType) external {\n        STAKING_CONTRACT.delegatedBatchUnstake(_ids, _tokenType);\n    }\n}\n",
  "sourcePath": "D:\\Code\\pa-contract-audit-main\\contracts\\PSYToken.sol",
  "compiler": {
    "name": "solc",
    "version": "0.8.14+commit.80d49f37.Emscripten.clang"
  },
  "schemaVersion": "3.4.5",
  "updatedAt": "2022-07-08T18:44:56.471Z",
  "devdoc": {
    "kind": "dev",
    "methods": {
      "allowance(address,address)": {
        "details": "See {IERC20-allowance}."
      },
      "approve(address,uint256)": {
        "details": "See {IERC20-approve}. NOTE: If `amount` is the maximum `uint256`, the allowance is not updated on `transferFrom`. This is semantically equivalent to an infinite approval. Requirements: - `spender` cannot be the zero address."
      },
      "balanceOf(address)": {
        "details": "See {IERC20-balanceOf}."
      },
      "decimals()": {
        "details": "Returns the number of decimals used to get its user representation. For example, if `decimals` equals `2`, a balance of `505` tokens should be displayed to a user as `5.05` (`505 / 10 ** 2`). Tokens usually opt for a value of 18, imitating the relationship between Ether and Wei. This is the value {ERC20} uses, unless this function is overridden; NOTE: This information is only used for _display_ purposes: it in no way affects any of the arithmetic of the contract, including {IERC20-balanceOf} and {IERC20-transfer}."
      },
      "decreaseAllowance(address,uint256)": {
        "details": "Atomically decreases the allowance granted to `spender` by the caller. This is an alternative to {approve} that can be used as a mitigation for problems described in {IERC20-approve}. Emits an {Approval} event indicating the updated allowance. Requirements: - `spender` cannot be the zero address. - `spender` must have allowance for the caller of at least `subtractedValue`."
      },
      "increaseAllowance(address,uint256)": {
        "details": "Atomically increases the allowance granted to `spender` by the caller. This is an alternative to {approve} that can be used as a mitigation for problems described in {IERC20-approve}. Emits an {Approval} event indicating the updated allowance. Requirements: - `spender` cannot be the zero address."
      },
      "name()": {
        "details": "Returns the name of the token."
      },
      "symbol()": {
        "details": "Returns the symbol of the token, usually a shorter version of the name."
      },
      "totalSupply()": {
        "details": "See {IERC20-totalSupply}."
      },
      "transfer(address,uint256)": {
        "details": "See {IERC20-transfer}. Requirements: - `to` cannot be the zero address. - the caller must have a balance of at least `amount`."
      },
      "transferFrom(address,address,uint256)": {
        "details": "See {IERC20-transferFrom}. Emits an {Approval} event indicating the updated allowance. This is not required by the EIP. See the note at the beginning of {ERC20}. NOTE: Does not update the allowance if the current allowance is the maximum `uint256`. Requirements: - `from` and `to` cannot be the zero address. - `from` must have a balance of at least `amount`. - the caller must have allowance for ``from``'s tokens of at least `amount`."
      }
    },
    "version": 1
  },
  "userdoc": {
    "kind": "user",
    "methods": {},
    "version": 1
  }
}